{
  "abi": [
    {
      "inputs": [
        {
          "internalType": "contract IERC721",
          "name": "_nftCollection",
          "type": "address"
        },
        {
          "internalType": "contract IERC20",
          "name": "_rewardsToken",
          "type": "address"
        }
      ],
      "stateMutability": "nonpayable",
      "type": "constructor"
    },
    {
      "inputs": [
        {
          "internalType": "address",
          "name": "_staker",
          "type": "address"
        }
      ],
      "name": "availableRewards",
      "outputs": [
        {
          "internalType": "uint256",
          "name": "",
          "type": "uint256"
        }
      ],
      "stateMutability": "view",
      "type": "function"
    },
    {
      "inputs": [],
      "name": "claimRewards",
      "outputs": [],
      "stateMutability": "nonpayable",
      "type": "function"
    },
    {
      "inputs": [
        {
          "internalType": "address",
          "name": "_user",
          "type": "address"
        }
      ],
      "name": "getStakedTokens",
      "outputs": [
        {
          "components": [
            {
              "internalType": "address",
              "name": "staker",
              "type": "address"
            },
            {
              "internalType": "uint256",
              "name": "tokenId",
              "type": "uint256"
            }
          ],
          "internalType": "struct ERC721Staking.StakedToken[]",
          "name": "",
          "type": "tuple[]"
        }
      ],
      "stateMutability": "view",
      "type": "function"
    },
    {
      "inputs": [],
      "name": "nftCollection",
      "outputs": [
        {
          "internalType": "contract IERC721",
          "name": "",
          "type": "address"
        }
      ],
      "stateMutability": "view",
      "type": "function"
    },
    {
      "inputs": [],
      "name": "rewardsToken",
      "outputs": [
        {
          "internalType": "contract IERC20",
          "name": "",
          "type": "address"
        }
      ],
      "stateMutability": "view",
      "type": "function"
    },
    {
      "inputs": [
        {
          "internalType": "uint256",
          "name": "_tokenId",
          "type": "uint256"
        }
      ],
      "name": "stake",
      "outputs": [],
      "stateMutability": "nonpayable",
      "type": "function"
    },
    {
      "inputs": [
        {
          "internalType": "uint256",
          "name": "",
          "type": "uint256"
        }
      ],
      "name": "stakerAddress",
      "outputs": [
        {
          "internalType": "address",
          "name": "",
          "type": "address"
        }
      ],
      "stateMutability": "view",
      "type": "function"
    },
    {
      "inputs": [
        {
          "internalType": "address",
          "name": "",
          "type": "address"
        }
      ],
      "name": "stakers",
      "outputs": [
        {
          "internalType": "uint256",
          "name": "amountStaked",
          "type": "uint256"
        },
        {
          "internalType": "uint256",
          "name": "timeOfLastUpdate",
          "type": "uint256"
        },
        {
          "internalType": "uint256",
          "name": "unclaimedRewards",
          "type": "uint256"
        }
      ],
      "stateMutability": "view",
      "type": "function"
    },
    {
      "inputs": [
        {
          "internalType": "uint256",
          "name": "_tokenId",
          "type": "uint256"
        }
      ],
      "name": "withdraw",
      "outputs": [],
      "stateMutability": "nonpayable",
      "type": "function"
    }
  ],
  "devdoc": {
    "kind": "dev",
    "methods": {},
    "version": 1
  },
  "evm": {
    "assembly": "    /* \"NftStaking.sol\":311:7355  contract ERC721Staking is ReentrancyGuard {... */\n  mstore(0x40, 0xc0)\n    /* \"NftStaking.sol\":1429:1435  100000 */\n  0x0186a0\n    /* \"NftStaking.sol\":1396:1435  uint256 private rewardsPerHour = 100000 */\n  0x01\n  sstore\n    /* \"NftStaking.sol\":612:758  constructor(IERC721 _nftCollection, IERC20 _rewardsToken) {... */\n  callvalue\n  dup1\n  iszero\n  tag_1\n  jumpi\n  0x00\n  dup1\n  revert\ntag_1:\n  pop\n  mload(0x40)\n  sub(codesize, bytecodeSize)\n  dup1\n  bytecodeSize\n  dup4\n  codecopy\n  dup2\n  add\n  0x40\n  dup2\n  swap1\n  mstore\n  tag_2\n  swap2\n  tag_3\n  jump\t// in\ntag_2:\n    /* \"@openzeppelin/contracts/security/ReentrancyGuard.sol\":1701:1702   */\n  0x01\n    /* \"@openzeppelin/contracts/security/ReentrancyGuard.sol\":1806:1813   */\n  0x00\n    /* \"@openzeppelin/contracts/security/ReentrancyGuard.sol\":1806:1828   */\n  sstore\n  sub(shl(0xa0, 0x01), 0x01)\n    /* \"NftStaking.sol\":681:711  nftCollection = _nftCollection */\n  swap2\n  dup3\n  and\n  0xa0\n  mstore\n    /* \"NftStaking.sol\":722:750  rewardsToken = _rewardsToken */\n  and\n  0x80\n  mstore\n    /* \"NftStaking.sol\":311:7355  contract ERC721Staking is ReentrancyGuard {... */\n  jump(tag_10)\n    /* \"#utility.yul\":14:154   */\ntag_9:\n  sub(shl(0xa0, 0x01), 0x01)\n    /* \"#utility.yul\":98:129   */\n  dup2\n  and\n    /* \"#utility.yul\":88:130   */\n  dup2\n  eq\n    /* \"#utility.yul\":78:148   */\n  tag_12\n  jumpi\n    /* \"#utility.yul\":144:145   */\n  0x00\n    /* \"#utility.yul\":141:142   */\n  dup1\n    /* \"#utility.yul\":134:146   */\n  revert\n    /* \"#utility.yul\":78:148   */\ntag_12:\n    /* \"#utility.yul\":14:154   */\n  pop\n  jump\t// out\n    /* \"#utility.yul\":159:591   */\ntag_3:\n    /* \"#utility.yul\":267:273   */\n  0x00\n    /* \"#utility.yul\":275:281   */\n  dup1\n    /* \"#utility.yul\":328:330   */\n  0x40\n    /* \"#utility.yul\":316:325   */\n  dup4\n    /* \"#utility.yul\":307:314   */\n  dup6\n    /* \"#utility.yul\":303:326   */\n  sub\n    /* \"#utility.yul\":299:331   */\n  slt\n    /* \"#utility.yul\":296:348   */\n  iszero\n  tag_14\n  jumpi\n    /* \"#utility.yul\":344:345   */\n  0x00\n    /* \"#utility.yul\":341:342   */\n  dup1\n    /* \"#utility.yul\":334:346   */\n  revert\n    /* \"#utility.yul\":296:348   */\ntag_14:\n    /* \"#utility.yul\":376:385   */\n  dup3\n    /* \"#utility.yul\":370:386   */\n  mload\n    /* \"#utility.yul\":395:435   */\n  tag_15\n    /* \"#utility.yul\":429:434   */\n  dup2\n    /* \"#utility.yul\":395:435   */\n  tag_9\n  jump\t// in\ntag_15:\n    /* \"#utility.yul\":504:506   */\n  0x20\n    /* \"#utility.yul\":489:507   */\n  dup5\n  add\n    /* \"#utility.yul\":483:508   */\n  mload\n    /* \"#utility.yul\":454:459   */\n  swap1\n  swap3\n  pop\n    /* \"#utility.yul\":517:559   */\n  tag_16\n    /* \"#utility.yul\":483:508   */\n  dup2\n    /* \"#utility.yul\":517:559   */\n  tag_9\n  jump\t// in\ntag_16:\n    /* \"#utility.yul\":578:585   */\n  dup1\n    /* \"#utility.yul\":568:585   */\n  swap2\n  pop\n  pop\n    /* \"#utility.yul\":159:591   */\n  swap3\n  pop\n  swap3\n  swap1\n  pop\n  jump\t// out\ntag_10:\n    /* \"NftStaking.sol\":311:7355  contract ERC721Staking is ReentrancyGuard {... */\n  mload(0x80)\n  mload(0xa0)\n  codecopy(0x00, dataOffset(sub_0), dataSize(sub_0))\n  0x00\n  assignImmutable(\"0x8e8fab5f003314da8d1873ea7720e8d9f47650136d916064d1edb8a11d682624\")\n  0x00\n  assignImmutable(\"0x5c4c6aa067b6f8e6cb38e6ab843832a94d1712d661a04d73c517d6a1931a9e5d\")\n  return(0x00, dataSize(sub_0))\nstop\n\nsub_0: assembly {\n        /* \"NftStaking.sol\":311:7355  contract ERC721Staking is ReentrancyGuard {... */\n      mstore(0x40, 0x80)\n      callvalue\n      dup1\n      iszero\n      tag_1\n      jumpi\n      0x00\n      dup1\n      revert\n    tag_1:\n      pop\n      jumpi(tag_2, lt(calldatasize, 0x04))\n      shr(0xe0, calldataload(0x00))\n      dup1\n      0x9168ae72\n      gt\n      tag_12\n      jumpi\n      dup1\n      0xa694fc3a\n      gt\n      tag_13\n      jumpi\n      dup1\n      0xa694fc3a\n      eq\n      tag_9\n      jumpi\n      dup1\n      0xd1af0c7d\n      eq\n      tag_10\n      jumpi\n      dup1\n      0xf854a27f\n      eq\n      tag_11\n      jumpi\n      0x00\n      dup1\n      revert\n    tag_13:\n      dup1\n      0x9168ae72\n      eq\n      tag_7\n      jumpi\n      dup1\n      0x94067045\n      eq\n      tag_8\n      jumpi\n      0x00\n      dup1\n      revert\n    tag_12:\n      dup1\n      0x2e1a7d4d\n      eq\n      tag_3\n      jumpi\n      dup1\n      0x372500ab\n      eq\n      tag_4\n      jumpi\n      dup1\n      0x63c28db1\n      eq\n      tag_5\n      jumpi\n      dup1\n      0x6588103b\n      eq\n      tag_6\n      jumpi\n    tag_2:\n      0x00\n      dup1\n      revert\n        /* \"NftStaking.sol\":3482:5144  function withdraw(uint256 _tokenId) external nonReentrant {... */\n    tag_3:\n      tag_14\n      tag_15\n      calldatasize\n      0x04\n      tag_16\n      jump\t// in\n    tag_15:\n      tag_17\n      jump\t// in\n    tag_14:\n      stop\n        /* \"NftStaking.sol\":5327:5713  function claimRewards() external {... */\n    tag_4:\n      tag_14\n      tag_19\n      jump\t// in\n        /* \"NftStaking.sol\":5990:6863  function getStakedTokens(address _user) public view returns (StakedToken[] memory) {... */\n    tag_5:\n      tag_20\n      tag_21\n      calldatasize\n      0x04\n      tag_22\n      jump\t// in\n    tag_21:\n      tag_23\n      jump\t// in\n    tag_20:\n      mload(0x40)\n      tag_24\n      swap2\n      swap1\n      tag_25\n      jump\t// in\n    tag_24:\n      mload(0x40)\n      dup1\n      swap2\n      sub\n      swap1\n      return\n        /* \"NftStaking.sol\":478:516  IERC721 public immutable nftCollection */\n    tag_6:\n      tag_26\n      immutable(\"0x8e8fab5f003314da8d1873ea7720e8d9f47650136d916064d1edb8a11d682624\")\n      dup2\n      jump\n    tag_26:\n      mload(0x40)\n      sub(shl(0xa0, 0x01), 0x01)\n        /* \"#utility.yul\":1635:1690   */\n      swap1\n      swap2\n      and\n        /* \"#utility.yul\":1617:1691   */\n      dup2\n      mstore\n        /* \"#utility.yul\":1605:1607   */\n      0x20\n        /* \"#utility.yul\":1590:1608   */\n      add\n        /* \"NftStaking.sol\":478:516  IERC721 public immutable nftCollection */\n      tag_24\n        /* \"#utility.yul\":1456:1697   */\n      jump\n        /* \"NftStaking.sol\":1491:1532  mapping(address => Staker) public stakers */\n    tag_7:\n      tag_30\n      tag_31\n      calldatasize\n      0x04\n      tag_22\n      jump\t// in\n    tag_31:\n      0x02\n      0x20\n      dup2\n      swap1\n      mstore\n      0x00\n      swap2\n      dup3\n      mstore\n      0x40\n      swap1\n      swap2\n      keccak256\n      dup1\n      sload\n      swap2\n      dup2\n      add\n      sload\n      0x03\n      swap1\n      swap2\n      add\n      sload\n      dup4\n      jump\n    tag_30:\n      0x40\n      dup1\n      mload\n        /* \"#utility.yul\":1904:1929   */\n      swap4\n      dup5\n      mstore\n        /* \"#utility.yul\":1960:1962   */\n      0x20\n        /* \"#utility.yul\":1945:1963   */\n      dup5\n      add\n        /* \"#utility.yul\":1938:1972   */\n      swap3\n      swap1\n      swap3\n      mstore\n        /* \"#utility.yul\":1988:2006   */\n      swap1\n      dup3\n      add\n        /* \"#utility.yul\":1981:2015   */\n      mstore\n        /* \"#utility.yul\":1892:1894   */\n      0x60\n        /* \"#utility.yul\":1877:1895   */\n      add\n        /* \"NftStaking.sol\":1491:1532  mapping(address => Staker) public stakers */\n      tag_24\n        /* \"#utility.yul\":1702:2021   */\n      jump\n        /* \"NftStaking.sol\":1653:1701  mapping(uint256 => address) public stakerAddress */\n    tag_8:\n      tag_26\n      tag_36\n      calldatasize\n      0x04\n      tag_16\n      jump\t// in\n    tag_36:\n      mstore(0x20, 0x03)\n      0x00\n      swap1\n      dup2\n      mstore\n      0x40\n      swap1\n      keccak256\n      sload\n      sub(shl(0xa0, 0x01), 0x01)\n      and\n      dup2\n      jump\n        /* \"NftStaking.sol\":1975:3229  function stake(uint256 _tokenId) external nonReentrant {... */\n    tag_9:\n      tag_14\n      tag_41\n      calldatasize\n      0x04\n      tag_16\n      jump\t// in\n    tag_41:\n      tag_42\n      jump\t// in\n        /* \"NftStaking.sol\":435:471  IERC20 public immutable rewardsToken */\n    tag_10:\n      tag_26\n      immutable(\"0x5c4c6aa067b6f8e6cb38e6ab843832a94d1712d661a04d73c517d6a1931a9e5d\")\n      dup2\n      jump\n        /* \"NftStaking.sol\":5773:5982  function availableRewards(address _staker) public view returns (uint256) {... */\n    tag_11:\n      tag_47\n      tag_48\n      calldatasize\n      0x04\n      tag_22\n      jump\t// in\n    tag_48:\n      tag_49\n      jump\t// in\n    tag_47:\n      mload(0x40)\n        /* \"#utility.yul\":2648:2673   */\n      swap1\n      dup2\n      mstore\n        /* \"#utility.yul\":2636:2638   */\n      0x20\n        /* \"#utility.yul\":2621:2639   */\n      add\n        /* \"NftStaking.sol\":5773:5982  function availableRewards(address _staker) public view returns (uint256) {... */\n      tag_24\n        /* \"#utility.yul\":2502:2679   */\n      jump\n        /* \"NftStaking.sol\":3482:5144  function withdraw(uint256 _tokenId) external nonReentrant {... */\n    tag_17:\n        /* \"@openzeppelin/contracts/security/ReentrancyGuard.sol\":1744:1745   */\n      0x02\n        /* \"@openzeppelin/contracts/security/ReentrancyGuard.sol\":2325:2332   */\n      sload(0x00)\n        /* \"@openzeppelin/contracts/security/ReentrancyGuard.sol\":2325:2344   */\n      sub\n        /* \"@openzeppelin/contracts/security/ReentrancyGuard.sol\":2317:2380   */\n      tag_53\n      jumpi\n      mload(0x40)\n      shl(0xe5, 0x461bcd)\n      dup2\n      mstore\n        /* \"#utility.yul\":2886:2888   */\n      0x20\n        /* \"@openzeppelin/contracts/security/ReentrancyGuard.sol\":2317:2380   */\n      0x04\n      dup3\n      add\n        /* \"#utility.yul\":2868:2889   */\n      mstore\n        /* \"#utility.yul\":2925:2927   */\n      0x1f\n        /* \"#utility.yul\":2905:2923   */\n      0x24\n      dup3\n      add\n        /* \"#utility.yul\":2898:2928   */\n      mstore\n        /* \"#utility.yul\":2964:2997   */\n      0x5265656e7472616e637947756172643a207265656e7472616e742063616c6c00\n        /* \"#utility.yul\":2944:2962   */\n      0x44\n      dup3\n      add\n        /* \"#utility.yul\":2937:2998   */\n      mstore\n        /* \"#utility.yul\":3015:3033   */\n      0x64\n      add\n        /* \"@openzeppelin/contracts/security/ReentrancyGuard.sol\":2317:2380   */\n    tag_54:\n      mload(0x40)\n      dup1\n      swap2\n      sub\n      swap1\n      revert\n    tag_53:\n        /* \"@openzeppelin/contracts/security/ReentrancyGuard.sol\":1744:1745   */\n      0x02\n        /* \"@openzeppelin/contracts/security/ReentrancyGuard.sol\":2455:2462   */\n      0x00\n        /* \"@openzeppelin/contracts/security/ReentrancyGuard.sol\":2455:2473   */\n      dup2\n      dup2\n      sstore\n        /* \"NftStaking.sol\":3661:3671  msg.sender */\n      caller\n        /* \"NftStaking.sol\":3653:3672  stakers[msg.sender] */\n      dup2\n      mstore\n      0x20\n      swap2\n      swap1\n      swap2\n      mstore\n      0x40\n      swap1\n      keccak256\n        /* \"NftStaking.sol\":3653:3685  stakers[msg.sender].amountStaked */\n      sload\n        /* \"NftStaking.sol\":3631:3742  require(... */\n      tag_57\n      jumpi\n      mload(0x40)\n      shl(0xe5, 0x461bcd)\n      dup2\n      mstore\n        /* \"#utility.yul\":3246:3248   */\n      0x20\n        /* \"NftStaking.sol\":3631:3742  require(... */\n      0x04\n      dup3\n      add\n        /* \"#utility.yul\":3228:3249   */\n      mstore\n        /* \"#utility.yul\":3285:3287   */\n      0x19\n        /* \"#utility.yul\":3265:3283   */\n      0x24\n      dup3\n      add\n        /* \"#utility.yul\":3258:3288   */\n      mstore\n        /* \"#utility.yul\":3324:3351   */\n      0x596f752068617665206e6f20746f6b656e73207374616b656400000000000000\n        /* \"#utility.yul\":3304:3322   */\n      0x44\n      dup3\n      add\n        /* \"#utility.yul\":3297:3352   */\n      mstore\n        /* \"#utility.yul\":3369:3387   */\n      0x64\n      add\n        /* \"NftStaking.sol\":3631:3742  require(... */\n      tag_54\n        /* \"#utility.yul\":3044:3393   */\n      jump\n        /* \"NftStaking.sol\":3631:3742  require(... */\n    tag_57:\n        /* \"NftStaking.sol\":3837:3860  stakerAddress[_tokenId] */\n      0x00\n      dup2\n      dup2\n      mstore\n        /* \"NftStaking.sol\":3837:3850  stakerAddress */\n      0x03\n        /* \"NftStaking.sol\":3837:3860  stakerAddress[_tokenId] */\n      0x20\n      mstore\n      0x40\n      swap1\n      keccak256\n      sload\n      sub(shl(0xa0, 0x01), 0x01)\n      and\n        /* \"NftStaking.sol\":3864:3874  msg.sender */\n      caller\n        /* \"NftStaking.sol\":3837:3874  stakerAddress[_tokenId] == msg.sender */\n      eq\n        /* \"NftStaking.sol\":3829:3904  require(stakerAddress[_tokenId] == msg.sender, \"You don't own this token!\") */\n      tag_60\n      jumpi\n      mload(0x40)\n      shl(0xe5, 0x461bcd)\n      dup2\n      mstore\n        /* \"#utility.yul\":3600:3602   */\n      0x20\n        /* \"NftStaking.sol\":3829:3904  require(stakerAddress[_tokenId] == msg.sender, \"You don't own this token!\") */\n      0x04\n      dup3\n      add\n        /* \"#utility.yul\":3582:3603   */\n      mstore\n        /* \"#utility.yul\":3639:3641   */\n      0x19\n        /* \"#utility.yul\":3619:3637   */\n      0x24\n      dup3\n      add\n        /* \"#utility.yul\":3612:3642   */\n      mstore\n        /* \"#utility.yul\":3678:3705   */\n      0x596f7520646f6e2774206f776e207468697320746f6b656e2100000000000000\n        /* \"#utility.yul\":3658:3676   */\n      0x44\n      dup3\n      add\n        /* \"#utility.yul\":3651:3706   */\n      mstore\n        /* \"#utility.yul\":3723:3741   */\n      0x64\n      add\n        /* \"NftStaking.sol\":3829:3904  require(stakerAddress[_tokenId] == msg.sender, \"You don't own this token!\") */\n      tag_54\n        /* \"#utility.yul\":3398:3747   */\n      jump\n        /* \"NftStaking.sol\":3829:3904  require(stakerAddress[_tokenId] == msg.sender, \"You don't own this token!\") */\n    tag_60:\n        /* \"NftStaking.sol\":4016:4031  uint256 rewards */\n      0x00\n        /* \"NftStaking.sol\":4034:4062  calculateRewards(msg.sender) */\n      tag_63\n        /* \"NftStaking.sol\":4051:4061  msg.sender */\n      caller\n        /* \"NftStaking.sol\":4034:4050  calculateRewards */\n      tag_64\n        /* \"NftStaking.sol\":4034:4062  calculateRewards(msg.sender) */\n      jump\t// in\n    tag_63:\n        /* \"NftStaking.sol\":4081:4091  msg.sender */\n      caller\n        /* \"NftStaking.sol\":4073:4092  stakers[msg.sender] */\n      0x00\n      swap1\n      dup2\n      mstore\n        /* \"NftStaking.sol\":4073:4080  stakers */\n      0x02\n        /* \"NftStaking.sol\":4073:4092  stakers[msg.sender] */\n      0x20\n      mstore\n      0x40\n      dup2\n      keccak256\n        /* \"NftStaking.sol\":4073:4109  stakers[msg.sender].unclaimedRewards */\n      0x03\n      add\n        /* \"NftStaking.sol\":4073:4120  stakers[msg.sender].unclaimedRewards += rewards */\n      dup1\n      sload\n        /* \"NftStaking.sol\":4016:4062  uint256 rewards = calculateRewards(msg.sender) */\n      swap3\n      swap4\n      pop\n      dup4\n      swap3\n        /* \"NftStaking.sol\":4073:4109  stakers[msg.sender].unclaimedRewards */\n      swap1\n      swap2\n        /* \"NftStaking.sol\":4073:4092  stakers[msg.sender] */\n      swap1\n        /* \"NftStaking.sol\":4073:4120  stakers[msg.sender].unclaimedRewards += rewards */\n      tag_65\n      swap1\n        /* \"NftStaking.sol\":4016:4062  uint256 rewards = calculateRewards(msg.sender) */\n      dup5\n      swap1\n        /* \"NftStaking.sol\":4073:4120  stakers[msg.sender].unclaimedRewards += rewards */\n      tag_66\n      jump\t// in\n    tag_65:\n      swap1\n      swap2\n      sstore\n      pop\n        /* \"NftStaking.sol\":4203:4216  uint256 index */\n      0x00\n      swap1\n      pop\n      dup1\n        /* \"NftStaking.sol\":4231:4456  for (uint256 i = 0; i < stakers[msg.sender].stakedTokens.length; i++) {... */\n    tag_67:\n        /* \"NftStaking.sol\":4263:4273  msg.sender */\n      caller\n        /* \"NftStaking.sol\":4255:4274  stakers[msg.sender] */\n      0x00\n      swap1\n      dup2\n      mstore\n        /* \"NftStaking.sol\":4255:4262  stakers */\n      0x02\n        /* \"NftStaking.sol\":4255:4274  stakers[msg.sender] */\n      0x20\n      mstore\n      0x40\n      swap1\n      keccak256\n        /* \"NftStaking.sol\":4255:4287  stakers[msg.sender].stakedTokens */\n      0x01\n      add\n        /* \"NftStaking.sol\":4255:4294  stakers[msg.sender].stakedTokens.length */\n      sload\n        /* \"NftStaking.sol\":4251:4294  i < stakers[msg.sender].stakedTokens.length */\n      dup2\n      lt\n        /* \"NftStaking.sol\":4231:4456  for (uint256 i = 0; i < stakers[msg.sender].stakedTokens.length; i++) {... */\n      iszero\n      tag_68\n      jumpi\n        /* \"NftStaking.sol\":4328:4338  msg.sender */\n      caller\n        /* \"NftStaking.sol\":4320:4339  stakers[msg.sender] */\n      0x00\n      swap1\n      dup2\n      mstore\n        /* \"NftStaking.sol\":4320:4327  stakers */\n      0x02\n        /* \"NftStaking.sol\":4320:4339  stakers[msg.sender] */\n      0x20\n      mstore\n      0x40\n      swap1\n      keccak256\n        /* \"NftStaking.sol\":4320:4352  stakers[msg.sender].stakedTokens */\n      0x01\n      add\n        /* \"NftStaking.sol\":4320:4355  stakers[msg.sender].stakedTokens[i] */\n      dup1\n      sload\n        /* \"NftStaking.sol\":4367:4375  _tokenId */\n      dup6\n      swap2\n        /* \"NftStaking.sol\":4320:4352  stakers[msg.sender].stakedTokens */\n      swap1\n        /* \"NftStaking.sol\":4353:4354  i */\n      dup4\n      swap1\n        /* \"NftStaking.sol\":4320:4355  stakers[msg.sender].stakedTokens[i] */\n      dup2\n      lt\n      tag_71\n      jumpi\n      tag_71\n      tag_72\n      jump\t// in\n    tag_71:\n      swap1\n      0x00\n      mstore\n      keccak256(0x00, 0x20)\n      swap1\n      0x02\n      mul\n      add\n        /* \"NftStaking.sol\":4320:4363  stakers[msg.sender].stakedTokens[i].tokenId */\n      0x01\n      add\n      sload\n        /* \"NftStaking.sol\":4320:4375  stakers[msg.sender].stakedTokens[i].tokenId == _tokenId */\n      sub\n        /* \"NftStaking.sol\":4316:4445  if (stakers[msg.sender].stakedTokens[i].tokenId == _tokenId) {... */\n      tag_74\n      jumpi\n        /* \"NftStaking.sol\":4404:4405  i */\n      dup1\n        /* \"NftStaking.sol\":4396:4405  index = i */\n      swap2\n      pop\n        /* \"NftStaking.sol\":4424:4429  break */\n      jump(tag_68)\n        /* \"NftStaking.sol\":4316:4445  if (stakers[msg.sender].stakedTokens[i].tokenId == _tokenId) {... */\n    tag_74:\n        /* \"NftStaking.sol\":4296:4299  i++ */\n      dup1\n      tag_75\n      dup2\n      tag_76\n      jump\t// in\n    tag_75:\n      swap2\n      pop\n      pop\n        /* \"NftStaking.sol\":4231:4456  for (uint256 i = 0; i < stakers[msg.sender].stakedTokens.length; i++) {... */\n      jump(tag_67)\n    tag_68:\n      pop\n        /* \"NftStaking.sol\":4560:4570  msg.sender */\n      caller\n        /* \"NftStaking.sol\":4609:4610  0 */\n      0x00\n        /* \"NftStaking.sol\":4552:4571  stakers[msg.sender] */\n      swap1\n      dup2\n      mstore\n        /* \"NftStaking.sol\":4552:4559  stakers */\n      0x02\n        /* \"NftStaking.sol\":4552:4571  stakers[msg.sender] */\n      0x20\n      mstore\n      0x40\n      dup2\n      keccak256\n        /* \"NftStaking.sol\":4552:4584  stakers[msg.sender].stakedTokens */\n      0x01\n      add\n        /* \"NftStaking.sol\":4552:4591  stakers[msg.sender].stakedTokens[index] */\n      dup1\n      sload\n        /* \"NftStaking.sol\":4585:4590  index */\n      dup4\n      swap1\n        /* \"NftStaking.sol\":4552:4591  stakers[msg.sender].stakedTokens[index] */\n      dup2\n      lt\n      tag_78\n      jumpi\n      tag_78\n      tag_72\n      jump\t// in\n    tag_78:\n      0x00\n      swap2\n      dup3\n      mstore\n      0x20\n      dup1\n      dup4\n      keccak256\n      0x02\n      swap3\n      dup4\n      mul\n      add\n        /* \"NftStaking.sol\":4552:4611  stakers[msg.sender].stakedTokens[index].staker = address(0) */\n      dup1\n      sload\n      not(sub(shl(0xa0, 0x01), 0x01))\n      and\n      sub(shl(0xa0, 0x01), 0x01)\n      swap6\n      swap1\n      swap6\n      and\n      swap5\n      swap1\n      swap5\n      or\n      swap1\n      swap4\n      sstore\n        /* \"NftStaking.sol\":4688:4698  msg.sender */\n      caller\n        /* \"NftStaking.sol\":4680:4699  stakers[msg.sender] */\n      dup3\n      mstore\n      swap1\n      swap2\n      mstore\n      0x40\n      dup2\n      keccak256\n        /* \"NftStaking.sol\":4680:4714  stakers[msg.sender].amountStaked-- */\n      dup1\n      sload\n      swap2\n      tag_80\n      dup4\n      tag_81\n      jump\t// in\n    tag_80:\n      swap1\n      swap2\n      sstore\n      pop\n      pop\n        /* \"NftStaking.sol\":4875:4876  0 */\n      0x00\n        /* \"NftStaking.sol\":4841:4864  stakerAddress[_tokenId] */\n      dup4\n      dup2\n      mstore\n        /* \"NftStaking.sol\":4841:4854  stakerAddress */\n      0x03\n        /* \"NftStaking.sol\":4841:4864  stakerAddress[_tokenId] */\n      0x20\n      mstore\n      0x40\n      swap1\n      dup2\n      swap1\n      keccak256\n        /* \"NftStaking.sol\":4841:4877  stakerAddress[_tokenId] = address(0) */\n      dup1\n      sload\n      not(sub(shl(0xa0, 0x01), 0x01))\n      and\n      swap1\n      sstore\n        /* \"NftStaking.sol\":4944:5007  nftCollection.transferFrom(address(this), msg.sender, _tokenId) */\n      mload\n      shl(0xe0, 0x23b872dd)\n      dup2\n      mstore\n        /* \"NftStaking.sol\":4979:4983  this */\n      address\n        /* \"NftStaking.sol\":4944:5007  nftCollection.transferFrom(address(this), msg.sender, _tokenId) */\n      0x04\n      dup3\n      add\n        /* \"#utility.yul\":4693:4727   */\n      mstore\n        /* \"NftStaking.sol\":4986:4996  msg.sender */\n      caller\n        /* \"#utility.yul\":4743:4761   */\n      0x24\n      dup3\n      add\n        /* \"#utility.yul\":4736:4779   */\n      mstore\n        /* \"#utility.yul\":4795:4813   */\n      0x44\n      dup2\n      add\n        /* \"#utility.yul\":4788:4822   */\n      dup5\n      swap1\n      mstore\n      sub(shl(0xa0, 0x01), 0x01)\n        /* \"NftStaking.sol\":4944:4957  nftCollection */\n      immutable(\"0x8e8fab5f003314da8d1873ea7720e8d9f47650136d916064d1edb8a11d682624\")\n        /* \"NftStaking.sol\":4944:4970  nftCollection.transferFrom */\n      and\n      swap1\n      0x23b872dd\n      swap1\n        /* \"#utility.yul\":4605:4623   */\n      0x64\n      add\n        /* \"NftStaking.sol\":4944:5007  nftCollection.transferFrom(address(this), msg.sender, _tokenId) */\n      0x00\n      mload(0x40)\n      dup1\n      dup4\n      sub\n      dup2\n      0x00\n      dup8\n      dup1\n      extcodesize\n      iszero\n      dup1\n      iszero\n      tag_84\n      jumpi\n      0x00\n      dup1\n      revert\n    tag_84:\n      pop\n      gas\n      call\n      iszero\n      dup1\n      iszero\n      tag_86\n      jumpi\n      returndatasize\n      0x00\n      dup1\n      returndatacopy\n      revert(0x00, returndatasize)\n    tag_86:\n      pop\n      pop\n        /* \"NftStaking.sol\":5090:5100  msg.sender */\n      caller\n        /* \"NftStaking.sol\":5082:5101  stakers[msg.sender] */\n      0x00\n      swap1\n      dup2\n      mstore\n        /* \"NftStaking.sol\":5082:5089  stakers */\n      0x02\n        /* \"NftStaking.sol\":5082:5101  stakers[msg.sender] */\n      0x20\n      dup2\n      swap1\n      mstore\n      0x40\n      dup3\n      keccak256\n        /* \"NftStaking.sol\":5121:5136  block.timestamp */\n      timestamp\n        /* \"NftStaking.sol\":5082:5118  stakers[msg.sender].timeOfLastUpdate */\n      swap2\n      add\n        /* \"NftStaking.sol\":5082:5136  stakers[msg.sender].timeOfLastUpdate = block.timestamp */\n      sstore\n        /* \"@openzeppelin/contracts/security/ReentrancyGuard.sol\":1701:1702   */\n      0x01\n        /* \"@openzeppelin/contracts/security/ReentrancyGuard.sol\":2628:2650   */\n      swap1\n      sstore\n      pop\n      pop\n      pop\n      pop\n      pop\n        /* \"NftStaking.sol\":3482:5144  function withdraw(uint256 _tokenId) external nonReentrant {... */\n      jump\t// out\n        /* \"NftStaking.sol\":5327:5713  function claimRewards() external {... */\n    tag_19:\n        /* \"NftStaking.sol\":5441:5451  msg.sender */\n      caller\n        /* \"NftStaking.sol\":5371:5386  uint256 rewards */\n      0x00\n        /* \"NftStaking.sol\":5433:5452  stakers[msg.sender] */\n      dup2\n      dup2\n      mstore\n        /* \"NftStaking.sol\":5433:5440  stakers */\n      0x02\n        /* \"NftStaking.sol\":5433:5452  stakers[msg.sender] */\n      0x20\n      mstore\n      0x40\n      dup2\n      keccak256\n        /* \"NftStaking.sol\":5433:5469  stakers[msg.sender].unclaimedRewards */\n      0x03\n      add\n      sload\n        /* \"NftStaking.sol\":5371:5386  uint256 rewards */\n      swap1\n      swap2\n        /* \"NftStaking.sol\":5389:5417  calculateRewards(msg.sender) */\n      tag_88\n      swap1\n        /* \"NftStaking.sol\":5389:5405  calculateRewards */\n      tag_64\n        /* \"NftStaking.sol\":5389:5417  calculateRewards(msg.sender) */\n      jump\t// in\n    tag_88:\n        /* \"NftStaking.sol\":5389:5469  calculateRewards(msg.sender) +... */\n      tag_89\n      swap2\n      swap1\n      tag_66\n      jump\t// in\n    tag_89:\n        /* \"NftStaking.sol\":5371:5469  uint256 rewards = calculateRewards(msg.sender) +... */\n      swap1\n      pop\n        /* \"NftStaking.sol\":5498:5499  0 */\n      0x00\n        /* \"NftStaking.sol\":5488:5495  rewards */\n      dup2\n        /* \"NftStaking.sol\":5488:5499  rewards > 0 */\n      gt\n        /* \"NftStaking.sol\":5480:5532  require(rewards > 0, \"You have no rewards to claim\") */\n      tag_90\n      jumpi\n      mload(0x40)\n      shl(0xe5, 0x461bcd)\n      dup2\n      mstore\n        /* \"#utility.yul\":5035:5037   */\n      0x20\n        /* \"NftStaking.sol\":5480:5532  require(rewards > 0, \"You have no rewards to claim\") */\n      0x04\n      dup3\n      add\n        /* \"#utility.yul\":5017:5038   */\n      mstore\n        /* \"#utility.yul\":5074:5076   */\n      0x1c\n        /* \"#utility.yul\":5054:5072   */\n      0x24\n      dup3\n      add\n        /* \"#utility.yul\":5047:5077   */\n      mstore\n        /* \"#utility.yul\":5113:5143   */\n      0x596f752068617665206e6f207265776172647320746f20636c61696d00000000\n        /* \"#utility.yul\":5093:5111   */\n      0x44\n      dup3\n      add\n        /* \"#utility.yul\":5086:5144   */\n      mstore\n        /* \"#utility.yul\":5161:5179   */\n      0x64\n      add\n        /* \"NftStaking.sol\":5480:5532  require(rewards > 0, \"You have no rewards to claim\") */\n      tag_54\n        /* \"#utility.yul\":4833:5185   */\n      jump\n        /* \"NftStaking.sol\":5480:5532  require(rewards > 0, \"You have no rewards to claim\") */\n    tag_90:\n        /* \"NftStaking.sol\":5551:5561  msg.sender */\n      caller\n        /* \"NftStaking.sol\":5543:5562  stakers[msg.sender] */\n      0x00\n      dup2\n      dup2\n      mstore\n        /* \"NftStaking.sol\":5543:5550  stakers */\n      0x02\n        /* \"NftStaking.sol\":5543:5562  stakers[msg.sender] */\n      0x20\n      dup2\n      swap1\n      mstore\n      0x40\n      dup3\n      keccak256\n        /* \"NftStaking.sol\":5582:5597  block.timestamp */\n      timestamp\n        /* \"NftStaking.sol\":5543:5579  stakers[msg.sender].timeOfLastUpdate */\n      swap2\n      dup2\n      add\n        /* \"NftStaking.sol\":5543:5597  stakers[msg.sender].timeOfLastUpdate = block.timestamp */\n      swap2\n      swap1\n      swap2\n      sstore\n        /* \"NftStaking.sol\":5608:5644  stakers[msg.sender].unclaimedRewards */\n      0x03\n      add\n        /* \"NftStaking.sol\":5608:5648  stakers[msg.sender].unclaimedRewards = 0 */\n      sstore\n        /* \"NftStaking.sol\":5659:5705  rewardsToken.safeTransfer(msg.sender, rewards) */\n      tag_93\n      swap1\n        /* \"NftStaking.sol\":5659:5671  rewardsToken */\n      immutable(\"0x5c4c6aa067b6f8e6cb38e6ab843832a94d1712d661a04d73c517d6a1931a9e5d\")\n      sub(shl(0xa0, 0x01), 0x01)\n        /* \"NftStaking.sol\":5659:5684  rewardsToken.safeTransfer */\n      and\n      swap1\n        /* \"NftStaking.sol\":5697:5704  rewards */\n      dup4\n        /* \"NftStaking.sol\":5659:5684  rewardsToken.safeTransfer */\n      tag_94\n        /* \"NftStaking.sol\":5659:5705  rewardsToken.safeTransfer(msg.sender, rewards) */\n      jump\t// in\n    tag_93:\n        /* \"NftStaking.sol\":5360:5713  {... */\n      pop\n        /* \"NftStaking.sol\":5327:5713  function claimRewards() external {... */\n      jump\t// out\n        /* \"NftStaking.sol\":5990:6863  function getStakedTokens(address _user) public view returns (StakedToken[] memory) {... */\n    tag_23:\n      sub(shl(0xa0, 0x01), 0x01)\n        /* \"NftStaking.sol\":6127:6141  stakers[_user] */\n      dup2\n      and\n        /* \"NftStaking.sol\":6157:6158  0 */\n      0x00\n        /* \"NftStaking.sol\":6127:6141  stakers[_user] */\n      swap1\n      dup2\n      mstore\n        /* \"NftStaking.sol\":6127:6134  stakers */\n      0x02\n        /* \"NftStaking.sol\":6127:6141  stakers[_user] */\n      0x20\n      mstore\n      0x40\n      swap1\n      keccak256\n        /* \"NftStaking.sol\":6127:6154  stakers[_user].amountStaked */\n      sload\n        /* \"NftStaking.sol\":6051:6071  StakedToken[] memory */\n      0x60\n      swap1\n        /* \"NftStaking.sol\":6127:6158  stakers[_user].amountStaked > 0 */\n      iszero\n        /* \"NftStaking.sol\":6123:6856  if (stakers[_user].amountStaked > 0) {... */\n      tag_96\n      jumpi\n      sub(shl(0xa0, 0x01), 0x01)\n        /* \"NftStaking.sol\":6323:6337  stakers[_user] */\n      dup3\n      and\n        /* \"NftStaking.sol\":6268:6302  StakedToken[] memory _stakedTokens */\n      0x00\n        /* \"NftStaking.sol\":6323:6337  stakers[_user] */\n      swap1\n      dup2\n      mstore\n        /* \"NftStaking.sol\":6323:6330  stakers */\n      0x02\n        /* \"NftStaking.sol\":6323:6337  stakers[_user] */\n      0x20\n      mstore\n      0x40\n      dup2\n      keccak256\n        /* \"NftStaking.sol\":6323:6350  stakers[_user].amountStaked */\n      sload\n        /* \"NftStaking.sol\":6305:6351  new StakedToken[](stakers[_user].amountStaked) */\n      0xffffffffffffffff\n      dup2\n      gt\n      iszero\n      tag_98\n      jumpi\n      tag_98\n      tag_99\n      jump\t// in\n    tag_98:\n      mload(0x40)\n      swap1\n      dup1\n      dup3\n      mstore\n      dup1\n      0x20\n      mul\n      0x20\n      add\n      dup3\n      add\n      0x40\n      mstore\n      dup1\n      iszero\n      tag_100\n      jumpi\n      dup2\n      0x20\n      add\n    tag_101:\n      0x40\n      dup1\n      mload\n      dup1\n      dup3\n      add\n      swap1\n      swap2\n      mstore\n      0x00\n      dup1\n      dup3\n      mstore\n      0x20\n      dup3\n      add\n      mstore\n      dup2\n      mstore\n      0x20\n      add\n      swap1\n      0x01\n      swap1\n      sub\n      swap1\n      dup2\n      tag_101\n      jumpi\n      swap1\n      pop\n    tag_100:\n      pop\n        /* \"NftStaking.sol\":6268:6351  StakedToken[] memory _stakedTokens = new StakedToken[](stakers[_user].amountStaked) */\n      swap1\n      pop\n        /* \"NftStaking.sol\":6366:6380  uint256 _index */\n      0x00\n        /* \"NftStaking.sol\":6406:6415  uint256 j */\n      dup1\n        /* \"NftStaking.sol\":6401:6687  for (uint256 j = 0; j < stakers[_user].stakedTokens.length; j++) {... */\n    tag_104:\n      sub(shl(0xa0, 0x01), 0x01)\n        /* \"NftStaking.sol\":6425:6439  stakers[_user] */\n      dup6\n      and\n      0x00\n      swap1\n      dup2\n      mstore\n        /* \"NftStaking.sol\":6425:6432  stakers */\n      0x02\n        /* \"NftStaking.sol\":6425:6439  stakers[_user] */\n      0x20\n      mstore\n      0x40\n      swap1\n      keccak256\n        /* \"NftStaking.sol\":6425:6452  stakers[_user].stakedTokens */\n      0x01\n      add\n        /* \"NftStaking.sol\":6425:6459  stakers[_user].stakedTokens.length */\n      sload\n        /* \"NftStaking.sol\":6421:6459  j < stakers[_user].stakedTokens.length */\n      dup2\n      lt\n        /* \"NftStaking.sol\":6401:6687  for (uint256 j = 0; j < stakers[_user].stakedTokens.length; j++) {... */\n      iszero\n      tag_105\n      jumpi\n      sub(shl(0xa0, 0x01), 0x01)\n        /* \"NftStaking.sol\":6489:6503  stakers[_user] */\n      dup6\n      and\n        /* \"NftStaking.sol\":6539:6540  0 */\n      0x00\n        /* \"NftStaking.sol\":6489:6503  stakers[_user] */\n      swap1\n      dup2\n      mstore\n        /* \"NftStaking.sol\":6489:6496  stakers */\n      0x02\n        /* \"NftStaking.sol\":6489:6503  stakers[_user] */\n      0x20\n      mstore\n      0x40\n      dup2\n      keccak256\n        /* \"NftStaking.sol\":6489:6516  stakers[_user].stakedTokens */\n      0x01\n      add\n        /* \"NftStaking.sol\":6489:6519  stakers[_user].stakedTokens[j] */\n      dup1\n      sload\n        /* \"NftStaking.sol\":6517:6518  j */\n      dup4\n      swap1\n        /* \"NftStaking.sol\":6489:6519  stakers[_user].stakedTokens[j] */\n      dup2\n      lt\n      tag_108\n      jumpi\n      tag_108\n      tag_72\n      jump\t// in\n    tag_108:\n      0x00\n      swap2\n      dup3\n      mstore\n      0x20\n      swap1\n      swap2\n      keccak256\n      0x02\n      swap1\n      swap2\n      mul\n      add\n        /* \"NftStaking.sol\":6489:6526  stakers[_user].stakedTokens[j].staker */\n      sload\n      sub(shl(0xa0, 0x01), 0x01)\n      and\n        /* \"NftStaking.sol\":6489:6542  stakers[_user].stakedTokens[j].staker != (address(0)) */\n      eq\n        /* \"NftStaking.sol\":6485:6672  if (stakers[_user].stakedTokens[j].staker != (address(0))) {... */\n      tag_110\n      jumpi\n      sub(shl(0xa0, 0x01), 0x01)\n        /* \"NftStaking.sol\":6591:6605  stakers[_user] */\n      dup6\n      and\n      0x00\n      swap1\n      dup2\n      mstore\n        /* \"NftStaking.sol\":6591:6598  stakers */\n      0x02\n        /* \"NftStaking.sol\":6591:6605  stakers[_user] */\n      0x20\n      mstore\n      0x40\n      swap1\n      keccak256\n        /* \"NftStaking.sol\":6591:6618  stakers[_user].stakedTokens */\n      0x01\n      add\n        /* \"NftStaking.sol\":6591:6621  stakers[_user].stakedTokens[j] */\n      dup1\n      sload\n        /* \"NftStaking.sol\":6619:6620  j */\n      dup3\n      swap1\n        /* \"NftStaking.sol\":6591:6621  stakers[_user].stakedTokens[j] */\n      dup2\n      lt\n      tag_112\n      jumpi\n      tag_112\n      tag_72\n      jump\t// in\n    tag_112:\n      0x00\n      swap2\n      dup3\n      mstore\n      0x20\n      swap2\n      dup3\n      swap1\n      keccak256\n        /* \"NftStaking.sol\":6567:6621  _stakedTokens[_index] = stakers[_user].stakedTokens[j] */\n      0x40\n      dup1\n      mload\n      dup1\n      dup3\n      add\n      swap1\n      swap2\n      mstore\n        /* \"NftStaking.sol\":6591:6621  stakers[_user].stakedTokens[j] */\n      0x02\n      swap1\n      swap3\n      mul\n      add\n        /* \"NftStaking.sol\":6567:6621  _stakedTokens[_index] = stakers[_user].stakedTokens[j] */\n      dup1\n      sload\n      sub(shl(0xa0, 0x01), 0x01)\n      and\n      dup3\n      mstore\n      0x01\n      add\n      sload\n      swap2\n      dup2\n      add\n      swap2\n      swap1\n      swap2\n      mstore\n        /* \"NftStaking.sol\":6567:6588  _stakedTokens[_index] */\n      dup4\n      mload\n        /* \"NftStaking.sol\":6567:6580  _stakedTokens */\n      dup5\n      swap1\n        /* \"NftStaking.sol\":6581:6587  _index */\n      dup5\n      swap1\n        /* \"NftStaking.sol\":6567:6588  _stakedTokens[_index] */\n      dup2\n      lt\n      tag_115\n      jumpi\n      tag_115\n      tag_72\n      jump\t// in\n    tag_115:\n      0x20\n      mul\n      0x20\n      add\n      add\n        /* \"NftStaking.sol\":6567:6621  _stakedTokens[_index] = stakers[_user].stakedTokens[j] */\n      dup2\n      swap1\n      mstore\n      pop\n        /* \"NftStaking.sol\":6644:6652  _index++ */\n      dup2\n      dup1\n      tag_116\n      swap1\n      tag_76\n      jump\t// in\n    tag_116:\n      swap3\n      pop\n      pop\n        /* \"NftStaking.sol\":6485:6672  if (stakers[_user].stakedTokens[j].staker != (address(0))) {... */\n    tag_110:\n        /* \"NftStaking.sol\":6461:6464  j++ */\n      dup1\n      tag_117\n      dup2\n      tag_76\n      jump\t// in\n    tag_117:\n      swap2\n      pop\n      pop\n        /* \"NftStaking.sol\":6401:6687  for (uint256 j = 0; j < stakers[_user].stakedTokens.length; j++) {... */\n      jump(tag_104)\n    tag_105:\n      pop\n        /* \"NftStaking.sol\":6710:6723  _stakedTokens */\n      swap1\n      swap4\n        /* \"NftStaking.sol\":5990:6863  function getStakedTokens(address _user) public view returns (StakedToken[] memory) {... */\n      swap3\n      pop\n      pop\n      pop\n      jump\t// out\n        /* \"NftStaking.sol\":6123:6856  if (stakers[_user].amountStaked > 0) {... */\n    tag_96:\n        /* \"NftStaking.sol\":6824:6844  new StakedToken[](0) */\n      0x40\n      dup1\n      mload\n        /* \"NftStaking.sol\":6842:6843  0 */\n      0x00\n        /* \"NftStaking.sol\":6824:6844  new StakedToken[](0) */\n      dup1\n      dup3\n      mstore\n      0x20\n      dup3\n      add\n      swap1\n      swap3\n      mstore\n      swap1\n      jump(tag_121)\n    tag_122:\n      0x40\n      dup1\n      mload\n      dup1\n      dup3\n      add\n      swap1\n      swap2\n      mstore\n      0x00\n      dup1\n      dup3\n      mstore\n      0x20\n      dup3\n      add\n      mstore\n      dup2\n      mstore\n      0x20\n      add\n      swap1\n      0x01\n      swap1\n      sub\n      swap1\n      dup2\n      tag_122\n      jumpi\n      swap1\n      pop\n    tag_121:\n      pop\n        /* \"NftStaking.sol\":6817:6844  return new StakedToken[](0) */\n      swap3\n        /* \"NftStaking.sol\":5990:6863  function getStakedTokens(address _user) public view returns (StakedToken[] memory) {... */\n      swap2\n      pop\n      pop\n      jump\t// out\n        /* \"NftStaking.sol\":1975:3229  function stake(uint256 _tokenId) external nonReentrant {... */\n    tag_42:\n        /* \"@openzeppelin/contracts/security/ReentrancyGuard.sol\":1744:1745   */\n      0x02\n        /* \"@openzeppelin/contracts/security/ReentrancyGuard.sol\":2325:2332   */\n      sload(0x00)\n        /* \"@openzeppelin/contracts/security/ReentrancyGuard.sol\":2325:2344   */\n      sub\n        /* \"@openzeppelin/contracts/security/ReentrancyGuard.sol\":2317:2380   */\n      tag_125\n      jumpi\n      mload(0x40)\n      shl(0xe5, 0x461bcd)\n      dup2\n      mstore\n        /* \"#utility.yul\":2886:2888   */\n      0x20\n        /* \"@openzeppelin/contracts/security/ReentrancyGuard.sol\":2317:2380   */\n      0x04\n      dup3\n      add\n        /* \"#utility.yul\":2868:2889   */\n      mstore\n        /* \"#utility.yul\":2925:2927   */\n      0x1f\n        /* \"#utility.yul\":2905:2923   */\n      0x24\n      dup3\n      add\n        /* \"#utility.yul\":2898:2928   */\n      mstore\n        /* \"#utility.yul\":2964:2997   */\n      0x5265656e7472616e637947756172643a207265656e7472616e742063616c6c00\n        /* \"#utility.yul\":2944:2962   */\n      0x44\n      dup3\n      add\n        /* \"#utility.yul\":2937:2998   */\n      mstore\n        /* \"#utility.yul\":3015:3033   */\n      0x64\n      add\n        /* \"@openzeppelin/contracts/security/ReentrancyGuard.sol\":2317:2380   */\n      tag_54\n        /* \"#utility.yul\":2684:3039   */\n      jump\n        /* \"@openzeppelin/contracts/security/ReentrancyGuard.sol\":2317:2380   */\n    tag_125:\n        /* \"@openzeppelin/contracts/security/ReentrancyGuard.sol\":1744:1745   */\n      0x02\n        /* \"@openzeppelin/contracts/security/ReentrancyGuard.sol\":2455:2462   */\n      0x00\n        /* \"@openzeppelin/contracts/security/ReentrancyGuard.sol\":2455:2473   */\n      dup2\n      dup2\n      sstore\n        /* \"NftStaking.sol\":2144:2154  msg.sender */\n      caller\n        /* \"NftStaking.sol\":2136:2155  stakers[msg.sender] */\n      dup2\n      mstore\n      0x20\n      swap2\n      swap1\n      swap2\n      mstore\n      0x40\n      swap1\n      keccak256\n        /* \"NftStaking.sol\":2136:2168  stakers[msg.sender].amountStaked */\n      sload\n        /* \"NftStaking.sol\":2136:2172  stakers[msg.sender].amountStaked > 0 */\n      iszero\n        /* \"NftStaking.sol\":2132:2309  if (stakers[msg.sender].amountStaked > 0) {... */\n      tag_128\n      jumpi\n        /* \"NftStaking.sol\":2189:2204  uint256 rewards */\n      0x00\n        /* \"NftStaking.sol\":2207:2235  calculateRewards(msg.sender) */\n      tag_129\n        /* \"NftStaking.sol\":2224:2234  msg.sender */\n      caller\n        /* \"NftStaking.sol\":2207:2223  calculateRewards */\n      tag_64\n        /* \"NftStaking.sol\":2207:2235  calculateRewards(msg.sender) */\n      jump\t// in\n    tag_129:\n        /* \"NftStaking.sol\":2258:2268  msg.sender */\n      caller\n        /* \"NftStaking.sol\":2250:2269  stakers[msg.sender] */\n      0x00\n      swap1\n      dup2\n      mstore\n        /* \"NftStaking.sol\":2250:2257  stakers */\n      0x02\n        /* \"NftStaking.sol\":2250:2269  stakers[msg.sender] */\n      0x20\n      mstore\n      0x40\n      dup2\n      keccak256\n        /* \"NftStaking.sol\":2250:2286  stakers[msg.sender].unclaimedRewards */\n      0x03\n      add\n        /* \"NftStaking.sol\":2250:2297  stakers[msg.sender].unclaimedRewards += rewards */\n      dup1\n      sload\n        /* \"NftStaking.sol\":2189:2235  uint256 rewards = calculateRewards(msg.sender) */\n      swap3\n      swap4\n      pop\n      dup4\n      swap3\n        /* \"NftStaking.sol\":2250:2286  stakers[msg.sender].unclaimedRewards */\n      swap1\n      swap2\n        /* \"NftStaking.sol\":2250:2269  stakers[msg.sender] */\n      swap1\n        /* \"NftStaking.sol\":2250:2297  stakers[msg.sender].unclaimedRewards += rewards */\n      tag_130\n      swap1\n        /* \"NftStaking.sol\":2189:2235  uint256 rewards = calculateRewards(msg.sender) */\n      dup5\n      swap1\n        /* \"NftStaking.sol\":2250:2297  stakers[msg.sender].unclaimedRewards += rewards */\n      tag_66\n      jump\t// in\n    tag_130:\n      swap1\n      swap2\n      sstore\n      pop\n      pop\n      pop\n        /* \"NftStaking.sol\":2132:2309  if (stakers[msg.sender].amountStaked > 0) {... */\n    tag_128:\n        /* \"NftStaking.sol\":2406:2437  nftCollection.ownerOf(_tokenId) */\n      mload(0x40)\n      shl(0xe1, 0x31a9108f)\n      dup2\n      mstore\n      0x04\n      dup2\n      add\n        /* \"#utility.yul\":2648:2673   */\n      dup3\n      swap1\n      mstore\n        /* \"NftStaking.sol\":2441:2451  msg.sender */\n      caller\n      swap1\n      sub(shl(0xa0, 0x01), 0x01)\n        /* \"NftStaking.sol\":2406:2419  nftCollection */\n      immutable(\"0x8e8fab5f003314da8d1873ea7720e8d9f47650136d916064d1edb8a11d682624\")\n        /* \"NftStaking.sol\":2406:2427  nftCollection.ownerOf */\n      and\n      swap1\n      0x6352211e\n      swap1\n        /* \"#utility.yul\":2621:2639   */\n      0x24\n      add\n        /* \"NftStaking.sol\":2406:2437  nftCollection.ownerOf(_tokenId) */\n      0x20\n      mload(0x40)\n      dup1\n      dup4\n      sub\n      dup2\n      dup7\n      gas\n      staticcall\n      iszero\n      dup1\n      iszero\n      tag_133\n      jumpi\n      returndatasize\n      0x00\n      dup1\n      returndatacopy\n      revert(0x00, returndatasize)\n    tag_133:\n      pop\n      pop\n      pop\n      pop\n      mload(0x40)\n      returndatasize\n      not(0x1f)\n      0x1f\n      dup3\n      add\n      and\n      dup3\n      add\n      dup1\n      0x40\n      mstore\n      pop\n      dup2\n      add\n      swap1\n      tag_134\n      swap2\n      swap1\n      tag_135\n      jump\t// in\n    tag_134:\n      sub(shl(0xa0, 0x01), 0x01)\n        /* \"NftStaking.sol\":2406:2451  nftCollection.ownerOf(_tokenId) == msg.sender */\n      and\n      eq\n        /* \"NftStaking.sol\":2384:2504  require(... */\n      tag_136\n      jumpi\n      mload(0x40)\n      shl(0xe5, 0x461bcd)\n      dup2\n      mstore\n        /* \"#utility.yul\":3600:3602   */\n      0x20\n        /* \"NftStaking.sol\":2384:2504  require(... */\n      0x04\n      dup3\n      add\n        /* \"#utility.yul\":3582:3603   */\n      mstore\n        /* \"#utility.yul\":3639:3641   */\n      0x19\n        /* \"#utility.yul\":3619:3637   */\n      0x24\n      dup3\n      add\n        /* \"#utility.yul\":3612:3642   */\n      mstore\n        /* \"#utility.yul\":3678:3705   */\n      0x596f7520646f6e2774206f776e207468697320746f6b656e2100000000000000\n        /* \"#utility.yul\":3658:3676   */\n      0x44\n      dup3\n      add\n        /* \"#utility.yul\":3651:3706   */\n      mstore\n        /* \"#utility.yul\":3723:3741   */\n      0x64\n      add\n        /* \"NftStaking.sol\":2384:2504  require(... */\n      tag_54\n        /* \"#utility.yul\":3398:3747   */\n      jump\n        /* \"NftStaking.sol\":2384:2504  require(... */\n    tag_136:\n        /* \"NftStaking.sol\":2586:2649  nftCollection.transferFrom(msg.sender, address(this), _tokenId) */\n      mload(0x40)\n      shl(0xe0, 0x23b872dd)\n      dup2\n      mstore\n        /* \"NftStaking.sol\":2613:2623  msg.sender */\n      caller\n        /* \"NftStaking.sol\":2586:2649  nftCollection.transferFrom(msg.sender, address(this), _tokenId) */\n      0x04\n      dup3\n      add\n        /* \"#utility.yul\":4693:4727   */\n      mstore\n        /* \"NftStaking.sol\":2633:2637  this */\n      address\n        /* \"#utility.yul\":4743:4761   */\n      0x24\n      dup3\n      add\n        /* \"#utility.yul\":4736:4779   */\n      mstore\n        /* \"#utility.yul\":4795:4813   */\n      0x44\n      dup2\n      add\n        /* \"#utility.yul\":4788:4822   */\n      dup3\n      swap1\n      mstore\n        /* \"NftStaking.sol\":2586:2599  nftCollection */\n      immutable(\"0x8e8fab5f003314da8d1873ea7720e8d9f47650136d916064d1edb8a11d682624\")\n      sub(shl(0xa0, 0x01), 0x01)\n        /* \"NftStaking.sol\":2586:2612  nftCollection.transferFrom */\n      and\n      swap1\n      0x23b872dd\n      swap1\n        /* \"#utility.yul\":4605:4623   */\n      0x64\n      add\n        /* \"NftStaking.sol\":2586:2649  nftCollection.transferFrom(msg.sender, address(this), _tokenId) */\n      0x00\n      mload(0x40)\n      dup1\n      dup4\n      sub\n      dup2\n      0x00\n      dup8\n      dup1\n      extcodesize\n      iszero\n      dup1\n      iszero\n      tag_139\n      jumpi\n      0x00\n      dup1\n      revert\n    tag_139:\n      pop\n      gas\n      call\n      iszero\n      dup1\n      iszero\n      tag_141\n      jumpi\n      returndatasize\n      0x00\n      dup1\n      returndatacopy\n      revert(0x00, returndatasize)\n    tag_141:\n      pop\n      pop\n        /* \"NftStaking.sol\":2726:2759  StakedToken(msg.sender, _tokenId) */\n      0x40\n      dup1\n      mload\n      dup1\n      dup3\n      add\n      dup3\n      mstore\n        /* \"NftStaking.sol\":2738:2748  msg.sender */\n      caller\n        /* \"NftStaking.sol\":2726:2759  StakedToken(msg.sender, _tokenId) */\n      dup1\n      dup3\n      mstore\n      0x20\n      dup1\n      dup4\n      add\n      dup8\n      dup2\n      mstore\n      0x00\n        /* \"NftStaking.sol\":2824:2843  stakers[msg.sender] */\n      dup4\n      dup2\n      mstore\n        /* \"NftStaking.sol\":2824:2831  stakers */\n      0x02\n        /* \"NftStaking.sol\":2824:2843  stakers[msg.sender] */\n      dup1\n      dup5\n      mstore\n      swap6\n      dup2\n      keccak256\n        /* \"NftStaking.sol\":2824:2856  stakers[msg.sender].stakedTokens */\n      0x01\n      dup1\n      dup3\n      add\n        /* \"NftStaking.sol\":2824:2874  stakers[msg.sender].stakedTokens.push(stakedToken) */\n      dup1\n      sload\n      dup1\n      dup4\n      add\n      dup3\n      sstore\n      swap1\n      dup5\n      mstore\n      swap5\n      dup4\n      keccak256\n      dup8\n      mload\n      swap6\n      swap1\n      swap9\n      mul\n      swap1\n      swap8\n      add\n      dup1\n      sload\n      not(sub(shl(0xa0, 0x01), 0x01))\n      and\n      sub(shl(0xa0, 0x01), 0x01)\n      swap1\n      swap6\n      and\n      swap5\n      swap1\n      swap5\n      or\n      dup5\n      sstore\n      swap2\n      mload\n      swap3\n      swap1\n      swap6\n      add\n      swap2\n      swap1\n      swap2\n      sstore\n        /* \"NftStaking.sol\":2943:2962  stakers[msg.sender] */\n      swap1\n      dup4\n      mstore\n        /* \"NftStaking.sol\":2943:2977  stakers[msg.sender].amountStaked++ */\n      dup1\n      sload\n        /* \"NftStaking.sol\":2726:2759  StakedToken(msg.sender, _tokenId) */\n      swap2\n      swap5\n      pop\n        /* \"NftStaking.sol\":2943:2977  stakers[msg.sender].amountStaked++ */\n      swap1\n      swap3\n      pop\n        /* \"NftStaking.sol\":2824:2843  stakers[msg.sender] */\n      swap1\n        /* \"NftStaking.sol\":2943:2977  stakers[msg.sender].amountStaked++ */\n      tag_143\n      dup4\n      tag_76\n      jump\t// in\n    tag_143:\n      swap1\n      swap2\n      sstore\n      pop\n      pop\n      pop\n        /* \"NftStaking.sol\":3060:3083  stakerAddress[_tokenId] */\n      0x00\n      swap1\n      dup2\n      mstore\n        /* \"NftStaking.sol\":3060:3073  stakerAddress */\n      0x03\n        /* \"NftStaking.sol\":3060:3083  stakerAddress[_tokenId] */\n      0x20\n      swap1\n      dup2\n      mstore\n      0x40\n      dup1\n      dup4\n      keccak256\n        /* \"NftStaking.sol\":3060:3096  stakerAddress[_tokenId] = msg.sender */\n      dup1\n      sload\n      not(sub(shl(0xa0, 0x01), 0x01))\n      and\n        /* \"NftStaking.sol\":3086:3096  msg.sender */\n      caller\n        /* \"NftStaking.sol\":3060:3096  stakerAddress[_tokenId] = msg.sender */\n      swap1\n      dup2\n      or\n      swap1\n      swap2\n      sstore\n        /* \"NftStaking.sol\":3167:3186  stakers[msg.sender] */\n      dup4\n      mstore\n        /* \"NftStaking.sol\":3167:3174  stakers */\n      0x02\n        /* \"NftStaking.sol\":3167:3186  stakers[msg.sender] */\n      swap2\n      dup3\n      swap1\n      mstore\n      dup3\n      keccak256\n        /* \"NftStaking.sol\":3206:3221  block.timestamp */\n      timestamp\n        /* \"NftStaking.sol\":3167:3203  stakers[msg.sender].timeOfLastUpdate */\n      swap2\n      add\n        /* \"NftStaking.sol\":3167:3221  stakers[msg.sender].timeOfLastUpdate = block.timestamp */\n      sstore\n        /* \"NftStaking.sol\":3060:3096  stakerAddress[_tokenId] = msg.sender */\n      0x01\n        /* \"@openzeppelin/contracts/security/ReentrancyGuard.sol\":2628:2650   */\n      swap1\n      sstore\n        /* \"NftStaking.sol\":1975:3229  function stake(uint256 _tokenId) external nonReentrant {... */\n      jump\t// out\n        /* \"NftStaking.sol\":5773:5982  function availableRewards(address _staker) public view returns (uint256) {... */\n    tag_49:\n      sub(shl(0xa0, 0x01), 0x01)\n        /* \"NftStaking.sol\":5916:5932  stakers[_staker] */\n      dup2\n      and\n        /* \"NftStaking.sol\":5837:5844  uint256 */\n      0x00\n        /* \"NftStaking.sol\":5916:5932  stakers[_staker] */\n      swap1\n      dup2\n      mstore\n        /* \"NftStaking.sol\":5916:5923  stakers */\n      0x02\n        /* \"NftStaking.sol\":5916:5932  stakers[_staker] */\n      0x20\n      mstore\n      0x40\n      dup2\n      keccak256\n        /* \"NftStaking.sol\":5916:5949  stakers[_staker].unclaimedRewards */\n      0x03\n      add\n      sload\n        /* \"NftStaking.sol\":5837:5844  uint256 */\n      dup2\n      swap1\n        /* \"NftStaking.sol\":5875:5900  calculateRewards(_staker) */\n      tag_145\n        /* \"NftStaking.sol\":5924:5931  _staker */\n      dup5\n        /* \"NftStaking.sol\":5875:5891  calculateRewards */\n      tag_64\n        /* \"NftStaking.sol\":5875:5900  calculateRewards(_staker) */\n      jump\t// in\n    tag_145:\n        /* \"NftStaking.sol\":5875:5949  calculateRewards(_staker) +... */\n      tag_146\n      swap2\n      swap1\n      tag_66\n      jump\t// in\n    tag_146:\n        /* \"NftStaking.sol\":5857:5949  uint256 rewards = calculateRewards(_staker) +... */\n      swap4\n        /* \"NftStaking.sol\":5773:5982  function availableRewards(address _staker) public view returns (uint256) {... */\n      swap3\n      pop\n      pop\n      pop\n      jump\t// out\n        /* \"NftStaking.sol\":7052:7352  function calculateRewards(address _staker)... */\n    tag_64:\n        /* \"NftStaking.sol\":7321:7335  rewardsPerHour */\n      sload(0x01)\n      sub(shl(0xa0, 0x01), 0x01)\n        /* \"NftStaking.sol\":7277:7293  stakers[_staker] */\n      dup3\n      and\n        /* \"NftStaking.sol\":7145:7161  uint256 _rewards */\n      0x00\n        /* \"NftStaking.sol\":7277:7293  stakers[_staker] */\n      swap1\n      dup2\n      mstore\n        /* \"NftStaking.sol\":7277:7284  stakers */\n      0x02\n        /* \"NftStaking.sol\":7277:7293  stakers[_staker] */\n      0x20\n      dup2\n      swap1\n      mstore\n      0x40\n      dup3\n      keccak256\n        /* \"NftStaking.sol\":7277:7306  stakers[_staker].amountStaked */\n      dup1\n      sload\n        /* \"NftStaking.sol\":7223:7256  stakers[_staker].timeOfLastUpdate */\n      swap2\n      add\n      sload\n        /* \"NftStaking.sol\":7145:7161  uint256 _rewards */\n      swap2\n      swap3\n        /* \"NftStaking.sol\":7339:7343  3600 */\n      0x0e10\n      swap3\n        /* \"NftStaking.sol\":7321:7335  rewardsPerHour */\n      swap1\n      swap2\n        /* \"NftStaking.sol\":7277:7306  stakers[_staker].amountStaked */\n      swap1\n        /* \"NftStaking.sol\":7205:7256  block.timestamp - stakers[_staker].timeOfLastUpdate */\n      tag_148\n      swap1\n        /* \"NftStaking.sol\":7205:7220  block.timestamp */\n      timestamp\n        /* \"NftStaking.sol\":7205:7256  block.timestamp - stakers[_staker].timeOfLastUpdate */\n      tag_149\n      jump\t// in\n    tag_148:\n        /* \"NftStaking.sol\":7204:7306  (block.timestamp - stakers[_staker].timeOfLastUpdate) *... */\n      tag_150\n      swap2\n      swap1\n      tag_151\n      jump\t// in\n    tag_150:\n        /* \"NftStaking.sol\":7188:7335  (... */\n      tag_152\n      swap2\n      swap1\n      tag_151\n      jump\t// in\n    tag_152:\n        /* \"NftStaking.sol\":7187:7343  ((... */\n      tag_153\n      swap2\n      swap1\n      tag_154\n      jump\t// in\n    tag_153:\n        /* \"NftStaking.sol\":7179:7344  return (((... */\n      swap3\n        /* \"NftStaking.sol\":7052:7352  function calculateRewards(address _staker)... */\n      swap2\n      pop\n      pop\n      jump\t// out\n        /* \"@openzeppelin/contracts/token/ERC20/utils/SafeERC20.sol\":701:906   */\n    tag_94:\n        /* \"@openzeppelin/contracts/token/ERC20/utils/SafeERC20.sol\":840:898   */\n      0x40\n      dup1\n      mload\n      sub(shl(0xa0, 0x01), 0x01)\n        /* \"#utility.yul\":6295:6350   */\n      dup5\n      and\n        /* \"@openzeppelin/contracts/token/ERC20/utils/SafeERC20.sol\":840:898   */\n      0x24\n      dup3\n      add\n        /* \"#utility.yul\":6277:6351   */\n      mstore\n        /* \"#utility.yul\":6367:6385   */\n      0x44\n      dup1\n      dup3\n      add\n        /* \"#utility.yul\":6360:6394   */\n      dup5\n      swap1\n      mstore\n        /* \"@openzeppelin/contracts/token/ERC20/utils/SafeERC20.sol\":840:898   */\n      dup3\n      mload\n      dup1\n      dup4\n      sub\n      swap1\n      swap2\n      add\n      dup2\n      mstore\n        /* \"#utility.yul\":6250:6268   */\n      0x64\n      swap1\n      swap2\n      add\n        /* \"@openzeppelin/contracts/token/ERC20/utils/SafeERC20.sol\":840:898   */\n      swap1\n      swap2\n      mstore\n      0x20\n      dup2\n      add\n      dup1\n      mload\n      0xffffffffffffffffffffffffffffffffffffffffffffffffffffffff\n      and\n      shl(0xe0, 0xa9059cbb)\n      or\n      swap1\n      mstore\n        /* \"@openzeppelin/contracts/token/ERC20/utils/SafeERC20.sol\":813:899   */\n      tag_156\n      swap1\n        /* \"@openzeppelin/contracts/token/ERC20/utils/SafeERC20.sol\":833:838   */\n      dup5\n      swap1\n        /* \"@openzeppelin/contracts/token/ERC20/utils/SafeERC20.sol\":813:832   */\n      tag_159\n        /* \"@openzeppelin/contracts/token/ERC20/utils/SafeERC20.sol\":813:899   */\n      jump\t// in\n    tag_156:\n        /* \"@openzeppelin/contracts/token/ERC20/utils/SafeERC20.sol\":701:906   */\n      pop\n      pop\n      pop\n      jump\t// out\n        /* \"@openzeppelin/contracts/token/ERC20/utils/SafeERC20.sol\":3207:3913   */\n    tag_159:\n        /* \"@openzeppelin/contracts/token/ERC20/utils/SafeERC20.sol\":3626:3649   */\n      0x00\n        /* \"@openzeppelin/contracts/token/ERC20/utils/SafeERC20.sol\":3652:3721   */\n      tag_161\n        /* \"@openzeppelin/contracts/token/ERC20/utils/SafeERC20.sol\":3680:3684   */\n      dup3\n        /* \"@openzeppelin/contracts/token/ERC20/utils/SafeERC20.sol\":3652:3721   */\n      mload(0x40)\n      dup1\n      0x40\n      add\n      0x40\n      mstore\n      dup1\n      0x20\n      dup2\n      mstore\n      0x20\n      add\n      0x5361666545524332303a206c6f772d6c6576656c2063616c6c206661696c6564\n      dup2\n      mstore\n      pop\n        /* \"@openzeppelin/contracts/token/ERC20/utils/SafeERC20.sol\":3660:3665   */\n      dup6\n      sub(shl(0xa0, 0x01), 0x01)\n        /* \"@openzeppelin/contracts/token/ERC20/utils/SafeERC20.sol\":3652:3679   */\n      and\n      tag_162\n      swap1\n        /* \"@openzeppelin/contracts/token/ERC20/utils/SafeERC20.sol\":3652:3721   */\n      swap3\n      swap2\n      swap1\n      0xffffffff\n      and\n      jump\t// in\n    tag_161:\n        /* \"@openzeppelin/contracts/token/ERC20/utils/SafeERC20.sol\":3735:3752   */\n      dup1\n      mload\n        /* \"@openzeppelin/contracts/token/ERC20/utils/SafeERC20.sol\":3626:3721   */\n      swap1\n      swap2\n      pop\n        /* \"@openzeppelin/contracts/token/ERC20/utils/SafeERC20.sol\":3735:3756   */\n      iszero\n        /* \"@openzeppelin/contracts/token/ERC20/utils/SafeERC20.sol\":3731:3907   */\n      tag_156\n      jumpi\n        /* \"@openzeppelin/contracts/token/ERC20/utils/SafeERC20.sol\":3830:3840   */\n      dup1\n        /* \"@openzeppelin/contracts/token/ERC20/utils/SafeERC20.sol\":3819:3849   */\n      dup1\n      0x20\n      add\n      swap1\n      mload\n      dup2\n      add\n      swap1\n      tag_164\n      swap2\n      swap1\n      tag_165\n      jump\t// in\n    tag_164:\n        /* \"@openzeppelin/contracts/token/ERC20/utils/SafeERC20.sol\":3811:3896   */\n      tag_156\n      jumpi\n      mload(0x40)\n      shl(0xe5, 0x461bcd)\n      dup2\n      mstore\n        /* \"#utility.yul\":6889:6891   */\n      0x20\n        /* \"@openzeppelin/contracts/token/ERC20/utils/SafeERC20.sol\":3811:3896   */\n      0x04\n      dup3\n      add\n        /* \"#utility.yul\":6871:6892   */\n      mstore\n        /* \"#utility.yul\":6928:6930   */\n      0x2a\n        /* \"#utility.yul\":6908:6926   */\n      0x24\n      dup3\n      add\n        /* \"#utility.yul\":6901:6931   */\n      mstore\n        /* \"#utility.yul\":6967:7001   */\n      0x5361666545524332303a204552433230206f7065726174696f6e20646964206e\n        /* \"#utility.yul\":6947:6965   */\n      0x44\n      dup3\n      add\n        /* \"#utility.yul\":6940:7002   */\n      mstore\n        /* \"#utility.yul\":7038:7050   */\n      0x6f74207375636365656400000000000000000000000000000000000000000000\n        /* \"#utility.yul\":7018:7036   */\n      0x64\n      dup3\n      add\n        /* \"#utility.yul\":7011:7051   */\n      mstore\n        /* \"#utility.yul\":7068:7087   */\n      0x84\n      add\n        /* \"@openzeppelin/contracts/token/ERC20/utils/SafeERC20.sol\":3811:3896   */\n      tag_54\n        /* \"#utility.yul\":6687:7093   */\n      jump\n        /* \"@openzeppelin/contracts/utils/Address.sol\":3861:4084   */\n    tag_162:\n        /* \"@openzeppelin/contracts/utils/Address.sol\":3994:4006   */\n      0x60\n        /* \"@openzeppelin/contracts/utils/Address.sol\":4025:4077   */\n      tag_170\n        /* \"@openzeppelin/contracts/utils/Address.sol\":4047:4053   */\n      dup5\n        /* \"@openzeppelin/contracts/utils/Address.sol\":4055:4059   */\n      dup5\n        /* \"@openzeppelin/contracts/utils/Address.sol\":4061:4062   */\n      0x00\n        /* \"@openzeppelin/contracts/utils/Address.sol\":4064:4076   */\n      dup6\n        /* \"@openzeppelin/contracts/utils/Address.sol\":4025:4046   */\n      tag_171\n        /* \"@openzeppelin/contracts/utils/Address.sol\":4025:4077   */\n      jump\t// in\n    tag_170:\n        /* \"@openzeppelin/contracts/utils/Address.sol\":4018:4077   */\n      swap5\n        /* \"@openzeppelin/contracts/utils/Address.sol\":3861:4084   */\n      swap4\n      pop\n      pop\n      pop\n      pop\n      jump\t// out\n        /* \"@openzeppelin/contracts/utils/Address.sol\":4948:5447   */\n    tag_171:\n        /* \"@openzeppelin/contracts/utils/Address.sol\":5113:5125   */\n      0x60\n        /* \"@openzeppelin/contracts/utils/Address.sol\":5170:5175   */\n      dup3\n        /* \"@openzeppelin/contracts/utils/Address.sol\":5145:5166   */\n      selfbalance\n        /* \"@openzeppelin/contracts/utils/Address.sol\":5145:5175   */\n      lt\n      iszero\n        /* \"@openzeppelin/contracts/utils/Address.sol\":5137:5218   */\n      tag_173\n      jumpi\n      mload(0x40)\n      shl(0xe5, 0x461bcd)\n      dup2\n      mstore\n        /* \"#utility.yul\":7300:7302   */\n      0x20\n        /* \"@openzeppelin/contracts/utils/Address.sol\":5137:5218   */\n      0x04\n      dup3\n      add\n        /* \"#utility.yul\":7282:7303   */\n      mstore\n        /* \"#utility.yul\":7339:7341   */\n      0x26\n        /* \"#utility.yul\":7319:7337   */\n      0x24\n      dup3\n      add\n        /* \"#utility.yul\":7312:7342   */\n      mstore\n        /* \"#utility.yul\":7378:7412   */\n      0x416464726573733a20696e73756666696369656e742062616c616e636520666f\n        /* \"#utility.yul\":7358:7376   */\n      0x44\n      dup3\n      add\n        /* \"#utility.yul\":7351:7413   */\n      mstore\n        /* \"#utility.yul\":7449:7457   */\n      0x722063616c6c0000000000000000000000000000000000000000000000000000\n        /* \"#utility.yul\":7429:7447   */\n      0x64\n      dup3\n      add\n        /* \"#utility.yul\":7422:7458   */\n      mstore\n        /* \"#utility.yul\":7475:7494   */\n      0x84\n      add\n        /* \"@openzeppelin/contracts/utils/Address.sol\":5137:5218   */\n      tag_54\n        /* \"#utility.yul\":7098:7500   */\n      jump\n        /* \"@openzeppelin/contracts/utils/Address.sol\":5137:5218   */\n    tag_173:\n      sub(shl(0xa0, 0x01), 0x01)\n        /* \"@openzeppelin/contracts/utils/Address.sol\":1465:1484   */\n      dup6\n      and\n      extcodesize\n        /* \"@openzeppelin/contracts/utils/Address.sol\":5228:5288   */\n      tag_178\n      jumpi\n      mload(0x40)\n      shl(0xe5, 0x461bcd)\n      dup2\n      mstore\n        /* \"#utility.yul\":7707:7709   */\n      0x20\n        /* \"@openzeppelin/contracts/utils/Address.sol\":5228:5288   */\n      0x04\n      dup3\n      add\n        /* \"#utility.yul\":7689:7710   */\n      mstore\n        /* \"#utility.yul\":7746:7748   */\n      0x1d\n        /* \"#utility.yul\":7726:7744   */\n      0x24\n      dup3\n      add\n        /* \"#utility.yul\":7719:7749   */\n      mstore\n        /* \"#utility.yul\":7785:7816   */\n      0x416464726573733a2063616c6c20746f206e6f6e2d636f6e7472616374000000\n        /* \"#utility.yul\":7765:7783   */\n      0x44\n      dup3\n      add\n        /* \"#utility.yul\":7758:7817   */\n      mstore\n        /* \"#utility.yul\":7834:7852   */\n      0x64\n      add\n        /* \"@openzeppelin/contracts/utils/Address.sol\":5228:5288   */\n      tag_54\n        /* \"#utility.yul\":7505:7858   */\n      jump\n        /* \"@openzeppelin/contracts/utils/Address.sol\":5228:5288   */\n    tag_178:\n        /* \"@openzeppelin/contracts/utils/Address.sol\":5300:5312   */\n      0x00\n        /* \"@openzeppelin/contracts/utils/Address.sol\":5314:5337   */\n      dup1\n        /* \"@openzeppelin/contracts/utils/Address.sol\":5341:5347   */\n      dup7\n      sub(shl(0xa0, 0x01), 0x01)\n        /* \"@openzeppelin/contracts/utils/Address.sol\":5341:5352   */\n      and\n        /* \"@openzeppelin/contracts/utils/Address.sol\":5360:5365   */\n      dup6\n        /* \"@openzeppelin/contracts/utils/Address.sol\":5367:5371   */\n      dup8\n        /* \"@openzeppelin/contracts/utils/Address.sol\":5341:5372   */\n      mload(0x40)\n      tag_181\n      swap2\n      swap1\n      tag_182\n      jump\t// in\n    tag_181:\n      0x00\n      mload(0x40)\n      dup1\n      dup4\n      sub\n      dup2\n      dup6\n      dup8\n      gas\n      call\n      swap3\n      pop\n      pop\n      pop\n      returndatasize\n      dup1\n      0x00\n      dup2\n      eq\n      tag_185\n      jumpi\n      mload(0x40)\n      swap2\n      pop\n      and(add(returndatasize, 0x3f), not(0x1f))\n      dup3\n      add\n      0x40\n      mstore\n      returndatasize\n      dup3\n      mstore\n      returndatasize\n      0x00\n      0x20\n      dup5\n      add\n      returndatacopy\n      jump(tag_184)\n    tag_185:\n      0x60\n      swap2\n      pop\n    tag_184:\n      pop\n        /* \"@openzeppelin/contracts/utils/Address.sol\":5299:5372   */\n      swap2\n      pop\n      swap2\n      pop\n        /* \"@openzeppelin/contracts/utils/Address.sol\":5389:5440   */\n      tag_186\n        /* \"@openzeppelin/contracts/utils/Address.sol\":5406:5413   */\n      dup3\n        /* \"@openzeppelin/contracts/utils/Address.sol\":5415:5425   */\n      dup3\n        /* \"@openzeppelin/contracts/utils/Address.sol\":5427:5439   */\n      dup7\n        /* \"@openzeppelin/contracts/utils/Address.sol\":5389:5405   */\n      tag_187\n        /* \"@openzeppelin/contracts/utils/Address.sol\":5389:5440   */\n      jump\t// in\n    tag_186:\n        /* \"@openzeppelin/contracts/utils/Address.sol\":5382:5440   */\n      swap8\n        /* \"@openzeppelin/contracts/utils/Address.sol\":4948:5447   */\n      swap7\n      pop\n      pop\n      pop\n      pop\n      pop\n      pop\n      pop\n      jump\t// out\n        /* \"@openzeppelin/contracts/utils/Address.sol\":7561:8253   */\n    tag_187:\n        /* \"@openzeppelin/contracts/utils/Address.sol\":7707:7719   */\n      0x60\n        /* \"@openzeppelin/contracts/utils/Address.sol\":7735:7742   */\n      dup4\n        /* \"@openzeppelin/contracts/utils/Address.sol\":7731:8247   */\n      iszero\n      tag_190\n      jumpi\n      pop\n        /* \"@openzeppelin/contracts/utils/Address.sol\":7765:7775   */\n      dup2\n        /* \"@openzeppelin/contracts/utils/Address.sol\":7758:7775   */\n      jump(tag_146)\n        /* \"@openzeppelin/contracts/utils/Address.sol\":7731:8247   */\n    tag_190:\n        /* \"@openzeppelin/contracts/utils/Address.sol\":7876:7893   */\n      dup3\n      mload\n        /* \"@openzeppelin/contracts/utils/Address.sol\":7876:7897   */\n      iszero\n        /* \"@openzeppelin/contracts/utils/Address.sol\":7872:8237   */\n      tag_192\n      jumpi\n        /* \"@openzeppelin/contracts/utils/Address.sol\":8070:8080   */\n      dup3\n        /* \"@openzeppelin/contracts/utils/Address.sol\":8064:8081   */\n      mload\n        /* \"@openzeppelin/contracts/utils/Address.sol\":8130:8145   */\n      dup1\n        /* \"@openzeppelin/contracts/utils/Address.sol\":8117:8127   */\n      dup5\n        /* \"@openzeppelin/contracts/utils/Address.sol\":8113:8115   */\n      0x20\n        /* \"@openzeppelin/contracts/utils/Address.sol\":8109:8128   */\n      add\n        /* \"@openzeppelin/contracts/utils/Address.sol\":8102:8146   */\n      revert\n        /* \"@openzeppelin/contracts/utils/Address.sol\":7872:8237   */\n    tag_192:\n        /* \"@openzeppelin/contracts/utils/Address.sol\":8209:8221   */\n      dup2\n        /* \"@openzeppelin/contracts/utils/Address.sol\":8202:8222   */\n      mload(0x40)\n      shl(0xe5, 0x461bcd)\n      dup2\n      mstore\n      0x04\n      add\n      tag_54\n      swap2\n      swap1\n      tag_195\n      jump\t// in\n        /* \"#utility.yul\":14:194   */\n    tag_16:\n        /* \"#utility.yul\":73:79   */\n      0x00\n        /* \"#utility.yul\":126:128   */\n      0x20\n        /* \"#utility.yul\":114:123   */\n      dup3\n        /* \"#utility.yul\":105:112   */\n      dup5\n        /* \"#utility.yul\":101:124   */\n      sub\n        /* \"#utility.yul\":97:129   */\n      slt\n        /* \"#utility.yul\":94:146   */\n      iszero\n      tag_201\n      jumpi\n        /* \"#utility.yul\":142:143   */\n      0x00\n        /* \"#utility.yul\":139:140   */\n      dup1\n        /* \"#utility.yul\":132:144   */\n      revert\n        /* \"#utility.yul\":94:146   */\n    tag_201:\n      pop\n        /* \"#utility.yul\":165:188   */\n      calldataload\n      swap2\n        /* \"#utility.yul\":14:194   */\n      swap1\n      pop\n      jump\t// out\n        /* \"#utility.yul\":199:353   */\n    tag_196:\n      sub(shl(0xa0, 0x01), 0x01)\n        /* \"#utility.yul\":278:283   */\n      dup2\n        /* \"#utility.yul\":274:328   */\n      and\n        /* \"#utility.yul\":267:272   */\n      dup2\n        /* \"#utility.yul\":264:329   */\n      eq\n        /* \"#utility.yul\":254:347   */\n      tag_93\n      jumpi\n        /* \"#utility.yul\":343:344   */\n      0x00\n        /* \"#utility.yul\":340:341   */\n      dup1\n        /* \"#utility.yul\":333:345   */\n      revert\n        /* \"#utility.yul\":358:605   */\n    tag_22:\n        /* \"#utility.yul\":417:423   */\n      0x00\n        /* \"#utility.yul\":470:472   */\n      0x20\n        /* \"#utility.yul\":458:467   */\n      dup3\n        /* \"#utility.yul\":449:456   */\n      dup5\n        /* \"#utility.yul\":445:468   */\n      sub\n        /* \"#utility.yul\":441:473   */\n      slt\n        /* \"#utility.yul\":438:490   */\n      iszero\n      tag_205\n      jumpi\n        /* \"#utility.yul\":486:487   */\n      0x00\n        /* \"#utility.yul\":483:484   */\n      dup1\n        /* \"#utility.yul\":476:488   */\n      revert\n        /* \"#utility.yul\":438:490   */\n    tag_205:\n        /* \"#utility.yul\":525:534   */\n      dup2\n        /* \"#utility.yul\":512:535   */\n      calldataload\n        /* \"#utility.yul\":544:575   */\n      tag_146\n        /* \"#utility.yul\":569:574   */\n      dup2\n        /* \"#utility.yul\":544:575   */\n      tag_196\n      jump\t// in\n        /* \"#utility.yul\":610:1451   */\n    tag_25:\n        /* \"#utility.yul\":835:837   */\n      0x20\n        /* \"#utility.yul\":887:908   */\n      dup1\n      dup3\n      mstore\n        /* \"#utility.yul\":957:970   */\n      dup3\n      mload\n        /* \"#utility.yul\":860:878   */\n      dup3\n      dup3\n      add\n        /* \"#utility.yul\":979:1001   */\n      dup2\n      swap1\n      mstore\n        /* \"#utility.yul\":806:810   */\n      0x00\n      swap2\n        /* \"#utility.yul\":835:837   */\n      swap1\n        /* \"#utility.yul\":1020:1022   */\n      0x40\n      swap1\n        /* \"#utility.yul\":1038:1056   */\n      dup2\n      dup6\n      add\n      swap1\n        /* \"#utility.yul\":1079:1094   */\n      dup7\n      dup5\n      add\n        /* \"#utility.yul\":806:810   */\n      dup6\n        /* \"#utility.yul\":1122:1425   */\n    tag_208:\n        /* \"#utility.yul\":1136:1142   */\n      dup3\n        /* \"#utility.yul\":1133:1134   */\n      dup2\n        /* \"#utility.yul\":1130:1143   */\n      lt\n        /* \"#utility.yul\":1122:1425   */\n      iszero\n      tag_210\n      jumpi\n        /* \"#utility.yul\":1195:1208   */\n      dup2\n      mload\n        /* \"#utility.yul\":1237:1246   */\n      dup1\n      mload\n      sub(shl(0xa0, 0x01), 0x01)\n        /* \"#utility.yul\":1233:1291   */\n      and\n        /* \"#utility.yul\":1221:1292   */\n      dup6\n      mstore\n        /* \"#utility.yul\":1332:1343   */\n      dup7\n      add\n        /* \"#utility.yul\":1326:1344   */\n      mload\n        /* \"#utility.yul\":1312:1324   */\n      dup7\n      dup6\n      add\n        /* \"#utility.yul\":1305:1345   */\n      mstore\n        /* \"#utility.yul\":1365:1377   */\n      swap3\n      dup5\n      add\n      swap3\n        /* \"#utility.yul\":1400:1415   */\n      swap1\n      dup6\n      add\n      swap1\n        /* \"#utility.yul\":1158:1159   */\n      0x01\n        /* \"#utility.yul\":1151:1160   */\n      add\n        /* \"#utility.yul\":1122:1425   */\n      jump(tag_208)\n    tag_210:\n      pop\n        /* \"#utility.yul\":1442:1445   */\n      swap2\n      swap8\n        /* \"#utility.yul\":610:1451   */\n      swap7\n      pop\n      pop\n      pop\n      pop\n      pop\n      pop\n      pop\n      jump\t// out\n        /* \"#utility.yul\":3752:3879   */\n    tag_197:\n        /* \"#utility.yul\":3813:3823   */\n      0x4e487b71\n        /* \"#utility.yul\":3808:3811   */\n      0xe0\n        /* \"#utility.yul\":3804:3824   */\n      shl\n        /* \"#utility.yul\":3801:3802   */\n      0x00\n        /* \"#utility.yul\":3794:3825   */\n      mstore\n        /* \"#utility.yul\":3844:3848   */\n      0x11\n        /* \"#utility.yul\":3841:3842   */\n      0x04\n        /* \"#utility.yul\":3834:3849   */\n      mstore\n        /* \"#utility.yul\":3868:3872   */\n      0x24\n        /* \"#utility.yul\":3865:3866   */\n      0x00\n        /* \"#utility.yul\":3858:3873   */\n      revert\n        /* \"#utility.yul\":3884:4012   */\n    tag_66:\n        /* \"#utility.yul\":3924:3927   */\n      0x00\n        /* \"#utility.yul\":3955:3956   */\n      dup3\n        /* \"#utility.yul\":3951:3957   */\n      not\n        /* \"#utility.yul\":3948:3949   */\n      dup3\n        /* \"#utility.yul\":3945:3958   */\n      gt\n        /* \"#utility.yul\":3942:3981   */\n      iszero\n      tag_222\n      jumpi\n        /* \"#utility.yul\":3961:3979   */\n      tag_222\n      tag_197\n      jump\t// in\n    tag_222:\n      pop\n        /* \"#utility.yul\":3997:4006   */\n      add\n      swap1\n        /* \"#utility.yul\":3884:4012   */\n      jump\t// out\n        /* \"#utility.yul\":4017:4144   */\n    tag_72:\n        /* \"#utility.yul\":4078:4088   */\n      0x4e487b71\n        /* \"#utility.yul\":4073:4076   */\n      0xe0\n        /* \"#utility.yul\":4069:4089   */\n      shl\n        /* \"#utility.yul\":4066:4067   */\n      0x00\n        /* \"#utility.yul\":4059:4090   */\n      mstore\n        /* \"#utility.yul\":4109:4113   */\n      0x32\n        /* \"#utility.yul\":4106:4107   */\n      0x04\n        /* \"#utility.yul\":4099:4114   */\n      mstore\n        /* \"#utility.yul\":4133:4137   */\n      0x24\n        /* \"#utility.yul\":4130:4131   */\n      0x00\n        /* \"#utility.yul\":4123:4138   */\n      revert\n        /* \"#utility.yul\":4149:4284   */\n    tag_76:\n        /* \"#utility.yul\":4188:4191   */\n      0x00\n        /* \"#utility.yul\":4209:4226   */\n      0x01\n      dup3\n      add\n        /* \"#utility.yul\":4206:4249   */\n      tag_226\n      jumpi\n        /* \"#utility.yul\":4229:4247   */\n      tag_226\n      tag_197\n      jump\t// in\n    tag_226:\n      pop\n        /* \"#utility.yul\":4276:4277   */\n      0x01\n        /* \"#utility.yul\":4265:4278   */\n      add\n      swap1\n        /* \"#utility.yul\":4149:4284   */\n      jump\t// out\n        /* \"#utility.yul\":4289:4425   */\n    tag_81:\n        /* \"#utility.yul\":4328:4331   */\n      0x00\n        /* \"#utility.yul\":4356:4361   */\n      dup2\n        /* \"#utility.yul\":4346:4385   */\n      tag_229\n      jumpi\n        /* \"#utility.yul\":4365:4383   */\n      tag_229\n      tag_197\n      jump\t// in\n    tag_229:\n      pop\n      not(0x00)\n        /* \"#utility.yul\":4401:4419   */\n      add\n      swap1\n        /* \"#utility.yul\":4289:4425   */\n      jump\t// out\n        /* \"#utility.yul\":5190:5317   */\n    tag_99:\n        /* \"#utility.yul\":5251:5261   */\n      0x4e487b71\n        /* \"#utility.yul\":5246:5249   */\n      0xe0\n        /* \"#utility.yul\":5242:5262   */\n      shl\n        /* \"#utility.yul\":5239:5240   */\n      0x00\n        /* \"#utility.yul\":5232:5263   */\n      mstore\n        /* \"#utility.yul\":5282:5286   */\n      0x41\n        /* \"#utility.yul\":5279:5280   */\n      0x04\n        /* \"#utility.yul\":5272:5287   */\n      mstore\n        /* \"#utility.yul\":5306:5310   */\n      0x24\n        /* \"#utility.yul\":5303:5304   */\n      0x00\n        /* \"#utility.yul\":5296:5311   */\n      revert\n        /* \"#utility.yul\":5322:5573   */\n    tag_135:\n        /* \"#utility.yul\":5392:5398   */\n      0x00\n        /* \"#utility.yul\":5445:5447   */\n      0x20\n        /* \"#utility.yul\":5433:5442   */\n      dup3\n        /* \"#utility.yul\":5424:5431   */\n      dup5\n        /* \"#utility.yul\":5420:5443   */\n      sub\n        /* \"#utility.yul\":5416:5448   */\n      slt\n        /* \"#utility.yul\":5413:5465   */\n      iszero\n      tag_234\n      jumpi\n        /* \"#utility.yul\":5461:5462   */\n      0x00\n        /* \"#utility.yul\":5458:5459   */\n      dup1\n        /* \"#utility.yul\":5451:5463   */\n      revert\n        /* \"#utility.yul\":5413:5465   */\n    tag_234:\n        /* \"#utility.yul\":5493:5502   */\n      dup2\n        /* \"#utility.yul\":5487:5503   */\n      mload\n        /* \"#utility.yul\":5512:5543   */\n      tag_146\n        /* \"#utility.yul\":5537:5542   */\n      dup2\n        /* \"#utility.yul\":5512:5543   */\n      tag_196\n      jump\t// in\n        /* \"#utility.yul\":5578:5703   */\n    tag_149:\n        /* \"#utility.yul\":5618:5622   */\n      0x00\n        /* \"#utility.yul\":5646:5647   */\n      dup3\n        /* \"#utility.yul\":5643:5644   */\n      dup3\n        /* \"#utility.yul\":5640:5648   */\n      lt\n        /* \"#utility.yul\":5637:5671   */\n      iszero\n      tag_238\n      jumpi\n        /* \"#utility.yul\":5651:5669   */\n      tag_238\n      tag_197\n      jump\t// in\n    tag_238:\n      pop\n        /* \"#utility.yul\":5688:5697   */\n      sub\n      swap1\n        /* \"#utility.yul\":5578:5703   */\n      jump\t// out\n        /* \"#utility.yul\":5708:5876   */\n    tag_151:\n        /* \"#utility.yul\":5748:5755   */\n      0x00\n        /* \"#utility.yul\":5814:5815   */\n      dup2\n        /* \"#utility.yul\":5810:5811   */\n      0x00\n        /* \"#utility.yul\":5806:5812   */\n      not\n        /* \"#utility.yul\":5802:5816   */\n      div\n        /* \"#utility.yul\":5799:5800   */\n      dup4\n        /* \"#utility.yul\":5796:5817   */\n      gt\n        /* \"#utility.yul\":5791:5792   */\n      dup3\n        /* \"#utility.yul\":5784:5793   */\n      iszero\n        /* \"#utility.yul\":5777:5794   */\n      iszero\n        /* \"#utility.yul\":5773:5818   */\n      and\n        /* \"#utility.yul\":5770:5841   */\n      iszero\n      tag_241\n      jumpi\n        /* \"#utility.yul\":5821:5839   */\n      tag_241\n      tag_197\n      jump\t// in\n    tag_241:\n      pop\n        /* \"#utility.yul\":5861:5870   */\n      mul\n      swap1\n        /* \"#utility.yul\":5708:5876   */\n      jump\t// out\n        /* \"#utility.yul\":5881:6098   */\n    tag_154:\n        /* \"#utility.yul\":5921:5922   */\n      0x00\n        /* \"#utility.yul\":5947:5948   */\n      dup3\n        /* \"#utility.yul\":5937:6069   */\n      tag_243\n      jumpi\n        /* \"#utility.yul\":5991:6001   */\n      0x4e487b71\n        /* \"#utility.yul\":5986:5989   */\n      0xe0\n        /* \"#utility.yul\":5982:6002   */\n      shl\n        /* \"#utility.yul\":5979:5980   */\n      0x00\n        /* \"#utility.yul\":5972:6003   */\n      mstore\n        /* \"#utility.yul\":6026:6030   */\n      0x12\n        /* \"#utility.yul\":6023:6024   */\n      0x04\n        /* \"#utility.yul\":6016:6031   */\n      mstore\n        /* \"#utility.yul\":6054:6058   */\n      0x24\n        /* \"#utility.yul\":6051:6052   */\n      0x00\n        /* \"#utility.yul\":6044:6059   */\n      revert\n        /* \"#utility.yul\":5937:6069   */\n    tag_243:\n      pop\n        /* \"#utility.yul\":6083:6092   */\n      div\n      swap1\n        /* \"#utility.yul\":5881:6098   */\n      jump\t// out\n        /* \"#utility.yul\":6405:6682   */\n    tag_165:\n        /* \"#utility.yul\":6472:6478   */\n      0x00\n        /* \"#utility.yul\":6525:6527   */\n      0x20\n        /* \"#utility.yul\":6513:6522   */\n      dup3\n        /* \"#utility.yul\":6504:6511   */\n      dup5\n        /* \"#utility.yul\":6500:6523   */\n      sub\n        /* \"#utility.yul\":6496:6528   */\n      slt\n        /* \"#utility.yul\":6493:6545   */\n      iszero\n      tag_246\n      jumpi\n        /* \"#utility.yul\":6541:6542   */\n      0x00\n        /* \"#utility.yul\":6538:6539   */\n      dup1\n        /* \"#utility.yul\":6531:6543   */\n      revert\n        /* \"#utility.yul\":6493:6545   */\n    tag_246:\n        /* \"#utility.yul\":6573:6582   */\n      dup2\n        /* \"#utility.yul\":6567:6583   */\n      mload\n        /* \"#utility.yul\":6626:6631   */\n      dup1\n        /* \"#utility.yul\":6619:6632   */\n      iszero\n        /* \"#utility.yul\":6612:6633   */\n      iszero\n        /* \"#utility.yul\":6605:6610   */\n      dup2\n        /* \"#utility.yul\":6602:6634   */\n      eq\n        /* \"#utility.yul\":6592:6652   */\n      tag_146\n      jumpi\n        /* \"#utility.yul\":6648:6649   */\n      0x00\n        /* \"#utility.yul\":6645:6646   */\n      dup1\n        /* \"#utility.yul\":6638:6650   */\n      revert\n        /* \"#utility.yul\":7863:8121   */\n    tag_198:\n        /* \"#utility.yul\":7935:7936   */\n      0x00\n        /* \"#utility.yul\":7945:8058   */\n    tag_252:\n        /* \"#utility.yul\":7959:7965   */\n      dup4\n        /* \"#utility.yul\":7956:7957   */\n      dup2\n        /* \"#utility.yul\":7953:7966   */\n      lt\n        /* \"#utility.yul\":7945:8058   */\n      iszero\n      tag_254\n      jumpi\n        /* \"#utility.yul\":8035:8046   */\n      dup2\n      dup2\n      add\n        /* \"#utility.yul\":8029:8047   */\n      mload\n        /* \"#utility.yul\":8016:8027   */\n      dup4\n      dup3\n      add\n        /* \"#utility.yul\":8009:8048   */\n      mstore\n        /* \"#utility.yul\":7981:7983   */\n      0x20\n        /* \"#utility.yul\":7974:7984   */\n      add\n        /* \"#utility.yul\":7945:8058   */\n      jump(tag_252)\n    tag_254:\n        /* \"#utility.yul\":8076:8082   */\n      dup4\n        /* \"#utility.yul\":8073:8074   */\n      dup2\n        /* \"#utility.yul\":8070:8083   */\n      gt\n        /* \"#utility.yul\":8067:8115   */\n      iszero\n      tag_255\n      jumpi\n        /* \"#utility.yul\":8111:8112   */\n      0x00\n        /* \"#utility.yul\":8102:8108   */\n      dup5\n        /* \"#utility.yul\":8097:8100   */\n      dup5\n        /* \"#utility.yul\":8093:8109   */\n      add\n        /* \"#utility.yul\":8086:8113   */\n      mstore\n        /* \"#utility.yul\":8067:8115   */\n    tag_255:\n      pop\n        /* \"#utility.yul\":7863:8121   */\n      pop\n      pop\n      pop\n      jump\t// out\n        /* \"#utility.yul\":8126:8400   */\n    tag_182:\n        /* \"#utility.yul\":8255:8258   */\n      0x00\n        /* \"#utility.yul\":8293:8299   */\n      dup3\n        /* \"#utility.yul\":8287:8300   */\n      mload\n        /* \"#utility.yul\":8309:8362   */\n      tag_257\n        /* \"#utility.yul\":8355:8361   */\n      dup2\n        /* \"#utility.yul\":8350:8353   */\n      dup5\n        /* \"#utility.yul\":8343:8347   */\n      0x20\n        /* \"#utility.yul\":8335:8341   */\n      dup8\n        /* \"#utility.yul\":8331:8348   */\n      add\n        /* \"#utility.yul\":8309:8362   */\n      tag_198\n      jump\t// in\n    tag_257:\n        /* \"#utility.yul\":8378:8394   */\n      swap2\n      swap1\n      swap2\n      add\n      swap3\n        /* \"#utility.yul\":8126:8400   */\n      swap2\n      pop\n      pop\n      jump\t// out\n        /* \"#utility.yul\":8405:8788   */\n    tag_195:\n        /* \"#utility.yul\":8554:8556   */\n      0x20\n        /* \"#utility.yul\":8543:8552   */\n      dup2\n        /* \"#utility.yul\":8536:8557   */\n      mstore\n        /* \"#utility.yul\":8517:8521   */\n      0x00\n        /* \"#utility.yul\":8586:8592   */\n      dup3\n        /* \"#utility.yul\":8580:8593   */\n      mload\n        /* \"#utility.yul\":8629:8635   */\n      dup1\n        /* \"#utility.yul\":8624:8626   */\n      0x20\n        /* \"#utility.yul\":8613:8622   */\n      dup5\n        /* \"#utility.yul\":8609:8627   */\n      add\n        /* \"#utility.yul\":8602:8636   */\n      mstore\n        /* \"#utility.yul\":8645:8711   */\n      tag_259\n        /* \"#utility.yul\":8704:8710   */\n      dup2\n        /* \"#utility.yul\":8699:8701   */\n      0x40\n        /* \"#utility.yul\":8688:8697   */\n      dup6\n        /* \"#utility.yul\":8684:8702   */\n      add\n        /* \"#utility.yul\":8679:8681   */\n      0x20\n        /* \"#utility.yul\":8671:8677   */\n      dup8\n        /* \"#utility.yul\":8667:8682   */\n      add\n        /* \"#utility.yul\":8645:8711   */\n      tag_198\n      jump\t// in\n    tag_259:\n        /* \"#utility.yul\":8772:8774   */\n      0x1f\n        /* \"#utility.yul\":8751:8766   */\n      add\n      not(0x1f)\n        /* \"#utility.yul\":8747:8776   */\n      and\n        /* \"#utility.yul\":8732:8777   */\n      swap2\n      swap1\n      swap2\n      add\n        /* \"#utility.yul\":8779:8781   */\n      0x40\n        /* \"#utility.yul\":8728:8782   */\n      add\n      swap3\n        /* \"#utility.yul\":8405:8788   */\n      swap2\n      pop\n      pop\n      jump\t// out\n\n    auxdata: 0xa264697066735822122075037d5aed3ba184b2ab67b8106c488140b12a72128ae28337629275539f62f264736f6c634300080d0033\n}\n",
    "bytecode": {
      "linkReferences": {},
      "object": "60c0604052620186a060015534801561001757600080fd5b506040516111563803806111568339810160408190526100369161006a565b60016000556001600160a01b0391821660a052166080526100a4565b6001600160a01b038116811461006757600080fd5b50565b6000806040838503121561007d57600080fd5b825161008881610052565b602084015190925061009981610052565b809150509250929050565b60805160a0516110726100e46000396000818160f30152818161047b0152818161088301526109660152600081816101b7015261059201526110726000f3fe608060405234801561001057600080fd5b50600436106100a35760003560e01c80639168ae7211610076578063a694fc3a1161005b578063a694fc3a1461019f578063d1af0c7d146101b2578063f854a27f146101d957600080fd5b80639168ae721461012d578063940670451461017657600080fd5b80632e1a7d4d146100a8578063372500ab146100bd57806363c28db1146100c55780636588103b146100ee575b600080fd5b6100bb6100b6366004610df9565b6101fa565b005b6100bb6104f5565b6100d86100d3366004610e27565b6105c4565b6040516100e59190610e44565b60405180910390f35b6101157f000000000000000000000000000000000000000000000000000000000000000081565b6040516001600160a01b0390911681526020016100e5565b61015b61013b366004610e27565b600260208190526000918252604090912080549181015460039091015483565b604080519384526020840192909252908201526060016100e5565b610115610184366004610df9565b6003602052600090815260409020546001600160a01b031681565b6100bb6101ad366004610df9565b6107be565b6101157f000000000000000000000000000000000000000000000000000000000000000081565b6101ec6101e7366004610e27565b610a7f565b6040519081526020016100e5565b6002600054036102515760405162461bcd60e51b815260206004820152601f60248201527f5265656e7472616e637947756172643a207265656e7472616e742063616c6c0060448201526064015b60405180910390fd5b6002600081815533815260209190915260409020546102b25760405162461bcd60e51b815260206004820152601960248201527f596f752068617665206e6f20746f6b656e73207374616b6564000000000000006044820152606401610248565b6000818152600360205260409020546001600160a01b031633146103185760405162461bcd60e51b815260206004820152601960248201527f596f7520646f6e2774206f776e207468697320746f6b656e21000000000000006044820152606401610248565b600061032333610ab7565b3360009081526002602052604081206003018054929350839290919061034a908490610eb2565b9091555060009050805b336000908152600260205260409020600101548110156103c65733600090815260026020526040902060010180548591908390811061039557610395610eca565b906000526020600020906002020160010154036103b4578091506103c6565b806103be81610ee0565b915050610354565b503360009081526002602052604081206001018054839081106103eb576103eb610eca565b6000918252602080832060029283020180546001600160a01b0319166001600160a01b0395909516949094179093553382529091526040812080549161043083610ef9565b90915550506000838152600360205260409081902080546001600160a01b0319169055516323b872dd60e01b8152306004820152336024820152604481018490526001600160a01b037f000000000000000000000000000000000000000000000000000000000000000016906323b872dd90606401600060405180830381600087803b1580156104bf57600080fd5b505af11580156104d3573d6000803e3d6000fd5b5050336000908152600260208190526040822042910155600190555050505050565b33600081815260026020526040812060030154909161051390610ab7565b61051d9190610eb2565b90506000811161056f5760405162461bcd60e51b815260206004820152601c60248201527f596f752068617665206e6f207265776172647320746f20636c61696d000000006044820152606401610248565b33600081815260026020819052604082204291810191909155600301556105c1907f00000000000000000000000000000000000000000000000000000000000000006001600160a01b03169083610b10565b50565b6001600160a01b0381166000908152600260205260409020546060901561077a576001600160a01b03821660009081526002602052604081205467ffffffffffffffff81111561061657610616610f10565b60405190808252806020026020018201604052801561065b57816020015b60408051808201909152600080825260208201528152602001906001900390816106345790505b5090506000805b6001600160a01b038516600090815260026020526040902060010154811015610771576001600160a01b03851660009081526002602052604081206001018054839081106106b2576106b2610eca565b60009182526020909120600290910201546001600160a01b03161461075f576001600160a01b03851660009081526002602052604090206001018054829081106106fe576106fe610eca565b60009182526020918290206040805180820190915260029092020180546001600160a01b031682526001015491810191909152835184908490811061074557610745610eca565b6020026020010181905250818061075b90610ee0565b9250505b8061076981610ee0565b915050610662565b50909392505050565b60408051600080825260208201909252906107b7565b60408051808201909152600080825260208201528152602001906001900390816107905790505b5092915050565b6002600054036108105760405162461bcd60e51b815260206004820152601f60248201527f5265656e7472616e637947756172643a207265656e7472616e742063616c6c006044820152606401610248565b6002600081815533815260209190915260409020541561086357600061083533610ab7565b3360009081526002602052604081206003018054929350839290919061085c908490610eb2565b9091555050505b6040516331a9108f60e11b81526004810182905233906001600160a01b037f00000000000000000000000000000000000000000000000000000000000000001690636352211e90602401602060405180830381865afa1580156108ca573d6000803e3d6000fd5b505050506040513d601f19601f820116820180604052508101906108ee9190610f26565b6001600160a01b0316146109445760405162461bcd60e51b815260206004820152601960248201527f596f7520646f6e2774206f776e207468697320746f6b656e21000000000000006044820152606401610248565b6040516323b872dd60e01b8152336004820152306024820152604481018290527f00000000000000000000000000000000000000000000000000000000000000006001600160a01b0316906323b872dd90606401600060405180830381600087803b1580156109b257600080fd5b505af11580156109c6573d6000803e3d6000fd5b50506040805180820182523380825260208083018781526000838152600280845295812060018082018054808301825590845294832087519590980290970180546001600160a01b0319166001600160a01b0390951694909417845591519290950191909155908352805491945090925090610a4183610ee0565b909155505050600090815260036020908152604080832080546001600160a01b03191633908117909155835260029182905282204291015560019055565b6001600160a01b0381166000908152600260205260408120600301548190610aa684610ab7565b610ab09190610eb2565b9392505050565b6001546001600160a01b0382166000908152600260208190526040822080549101549192610e1092909190610aec9042610f43565b610af69190610f5a565b610b009190610f5a565b610b0a9190610f79565b92915050565b604080516001600160a01b038416602482015260448082018490528251808303909101815260649091019091526020810180517bffffffffffffffffffffffffffffffffffffffffffffffffffffffff1663a9059cbb60e01b179052610b77908490610b7c565b505050565b6000610bd1826040518060400160405280602081526020017f5361666545524332303a206c6f772d6c6576656c2063616c6c206661696c6564815250856001600160a01b0316610c619092919063ffffffff16565b805190915015610b775780806020019051810190610bef9190610f9b565b610b775760405162461bcd60e51b815260206004820152602a60248201527f5361666545524332303a204552433230206f7065726174696f6e20646964206e60448201527f6f742073756363656564000000000000000000000000000000000000000000006064820152608401610248565b6060610c708484600085610c78565b949350505050565b606082471015610cf05760405162461bcd60e51b815260206004820152602660248201527f416464726573733a20696e73756666696369656e742062616c616e636520666f60448201527f722063616c6c00000000000000000000000000000000000000000000000000006064820152608401610248565b6001600160a01b0385163b610d475760405162461bcd60e51b815260206004820152601d60248201527f416464726573733a2063616c6c20746f206e6f6e2d636f6e74726163740000006044820152606401610248565b600080866001600160a01b03168587604051610d639190610fed565b60006040518083038185875af1925050503d8060008114610da0576040519150601f19603f3d011682016040523d82523d6000602084013e610da5565b606091505b5091509150610db5828286610dc0565b979650505050505050565b60608315610dcf575081610ab0565b825115610ddf5782518084602001fd5b8160405162461bcd60e51b81526004016102489190611009565b600060208284031215610e0b57600080fd5b5035919050565b6001600160a01b03811681146105c157600080fd5b600060208284031215610e3957600080fd5b8135610ab081610e12565b602080825282518282018190526000919060409081850190868401855b82811015610e8f57815180516001600160a01b03168552860151868501529284019290850190600101610e61565b5091979650505050505050565b634e487b7160e01b600052601160045260246000fd5b60008219821115610ec557610ec5610e9c565b500190565b634e487b7160e01b600052603260045260246000fd5b600060018201610ef257610ef2610e9c565b5060010190565b600081610f0857610f08610e9c565b506000190190565b634e487b7160e01b600052604160045260246000fd5b600060208284031215610f3857600080fd5b8151610ab081610e12565b600082821015610f5557610f55610e9c565b500390565b6000816000190483118215151615610f7457610f74610e9c565b500290565b600082610f9657634e487b7160e01b600052601260045260246000fd5b500490565b600060208284031215610fad57600080fd5b81518015158114610ab057600080fd5b60005b83811015610fd8578181015183820152602001610fc0565b83811115610fe7576000848401525b50505050565b60008251610fff818460208701610fbd565b9190910192915050565b6020815260008251806020840152611028816040850160208701610fbd565b601f01601f1916919091016040019291505056fea264697066735822122075037d5aed3ba184b2ab67b8106c488140b12a72128ae28337629275539f62f264736f6c634300080d0033",
      "opcodes": "PUSH1 0xC0 PUSH1 0x40 MSTORE PUSH3 0x186A0 PUSH1 0x1 SSTORE CALLVALUE DUP1 ISZERO PUSH2 0x17 JUMPI PUSH1 0x0 DUP1 REVERT JUMPDEST POP PUSH1 0x40 MLOAD PUSH2 0x1156 CODESIZE SUB DUP1 PUSH2 0x1156 DUP4 CODECOPY DUP2 ADD PUSH1 0x40 DUP2 SWAP1 MSTORE PUSH2 0x36 SWAP2 PUSH2 0x6A JUMP JUMPDEST PUSH1 0x1 PUSH1 0x0 SSTORE PUSH1 0x1 PUSH1 0x1 PUSH1 0xA0 SHL SUB SWAP2 DUP3 AND PUSH1 0xA0 MSTORE AND PUSH1 0x80 MSTORE PUSH2 0xA4 JUMP JUMPDEST PUSH1 0x1 PUSH1 0x1 PUSH1 0xA0 SHL SUB DUP2 AND DUP2 EQ PUSH2 0x67 JUMPI PUSH1 0x0 DUP1 REVERT JUMPDEST POP JUMP JUMPDEST PUSH1 0x0 DUP1 PUSH1 0x40 DUP4 DUP6 SUB SLT ISZERO PUSH2 0x7D JUMPI PUSH1 0x0 DUP1 REVERT JUMPDEST DUP3 MLOAD PUSH2 0x88 DUP2 PUSH2 0x52 JUMP JUMPDEST PUSH1 0x20 DUP5 ADD MLOAD SWAP1 SWAP3 POP PUSH2 0x99 DUP2 PUSH2 0x52 JUMP JUMPDEST DUP1 SWAP2 POP POP SWAP3 POP SWAP3 SWAP1 POP JUMP JUMPDEST PUSH1 0x80 MLOAD PUSH1 0xA0 MLOAD PUSH2 0x1072 PUSH2 0xE4 PUSH1 0x0 CODECOPY PUSH1 0x0 DUP2 DUP2 PUSH1 0xF3 ADD MSTORE DUP2 DUP2 PUSH2 0x47B ADD MSTORE DUP2 DUP2 PUSH2 0x883 ADD MSTORE PUSH2 0x966 ADD MSTORE PUSH1 0x0 DUP2 DUP2 PUSH2 0x1B7 ADD MSTORE PUSH2 0x592 ADD MSTORE PUSH2 0x1072 PUSH1 0x0 RETURN INVALID PUSH1 0x80 PUSH1 0x40 MSTORE CALLVALUE DUP1 ISZERO PUSH2 0x10 JUMPI PUSH1 0x0 DUP1 REVERT JUMPDEST POP PUSH1 0x4 CALLDATASIZE LT PUSH2 0xA3 JUMPI PUSH1 0x0 CALLDATALOAD PUSH1 0xE0 SHR DUP1 PUSH4 0x9168AE72 GT PUSH2 0x76 JUMPI DUP1 PUSH4 0xA694FC3A GT PUSH2 0x5B JUMPI DUP1 PUSH4 0xA694FC3A EQ PUSH2 0x19F JUMPI DUP1 PUSH4 0xD1AF0C7D EQ PUSH2 0x1B2 JUMPI DUP1 PUSH4 0xF854A27F EQ PUSH2 0x1D9 JUMPI PUSH1 0x0 DUP1 REVERT JUMPDEST DUP1 PUSH4 0x9168AE72 EQ PUSH2 0x12D JUMPI DUP1 PUSH4 0x94067045 EQ PUSH2 0x176 JUMPI PUSH1 0x0 DUP1 REVERT JUMPDEST DUP1 PUSH4 0x2E1A7D4D EQ PUSH2 0xA8 JUMPI DUP1 PUSH4 0x372500AB EQ PUSH2 0xBD JUMPI DUP1 PUSH4 0x63C28DB1 EQ PUSH2 0xC5 JUMPI DUP1 PUSH4 0x6588103B EQ PUSH2 0xEE JUMPI JUMPDEST PUSH1 0x0 DUP1 REVERT JUMPDEST PUSH2 0xBB PUSH2 0xB6 CALLDATASIZE PUSH1 0x4 PUSH2 0xDF9 JUMP JUMPDEST PUSH2 0x1FA JUMP JUMPDEST STOP JUMPDEST PUSH2 0xBB PUSH2 0x4F5 JUMP JUMPDEST PUSH2 0xD8 PUSH2 0xD3 CALLDATASIZE PUSH1 0x4 PUSH2 0xE27 JUMP JUMPDEST PUSH2 0x5C4 JUMP JUMPDEST PUSH1 0x40 MLOAD PUSH2 0xE5 SWAP2 SWAP1 PUSH2 0xE44 JUMP JUMPDEST PUSH1 0x40 MLOAD DUP1 SWAP2 SUB SWAP1 RETURN JUMPDEST PUSH2 0x115 PUSH32 0x0 DUP2 JUMP JUMPDEST PUSH1 0x40 MLOAD PUSH1 0x1 PUSH1 0x1 PUSH1 0xA0 SHL SUB SWAP1 SWAP2 AND DUP2 MSTORE PUSH1 0x20 ADD PUSH2 0xE5 JUMP JUMPDEST PUSH2 0x15B PUSH2 0x13B CALLDATASIZE PUSH1 0x4 PUSH2 0xE27 JUMP JUMPDEST PUSH1 0x2 PUSH1 0x20 DUP2 SWAP1 MSTORE PUSH1 0x0 SWAP2 DUP3 MSTORE PUSH1 0x40 SWAP1 SWAP2 KECCAK256 DUP1 SLOAD SWAP2 DUP2 ADD SLOAD PUSH1 0x3 SWAP1 SWAP2 ADD SLOAD DUP4 JUMP JUMPDEST PUSH1 0x40 DUP1 MLOAD SWAP4 DUP5 MSTORE PUSH1 0x20 DUP5 ADD SWAP3 SWAP1 SWAP3 MSTORE SWAP1 DUP3 ADD MSTORE PUSH1 0x60 ADD PUSH2 0xE5 JUMP JUMPDEST PUSH2 0x115 PUSH2 0x184 CALLDATASIZE PUSH1 0x4 PUSH2 0xDF9 JUMP JUMPDEST PUSH1 0x3 PUSH1 0x20 MSTORE PUSH1 0x0 SWAP1 DUP2 MSTORE PUSH1 0x40 SWAP1 KECCAK256 SLOAD PUSH1 0x1 PUSH1 0x1 PUSH1 0xA0 SHL SUB AND DUP2 JUMP JUMPDEST PUSH2 0xBB PUSH2 0x1AD CALLDATASIZE PUSH1 0x4 PUSH2 0xDF9 JUMP JUMPDEST PUSH2 0x7BE JUMP JUMPDEST PUSH2 0x115 PUSH32 0x0 DUP2 JUMP JUMPDEST PUSH2 0x1EC PUSH2 0x1E7 CALLDATASIZE PUSH1 0x4 PUSH2 0xE27 JUMP JUMPDEST PUSH2 0xA7F JUMP JUMPDEST PUSH1 0x40 MLOAD SWAP1 DUP2 MSTORE PUSH1 0x20 ADD PUSH2 0xE5 JUMP JUMPDEST PUSH1 0x2 PUSH1 0x0 SLOAD SUB PUSH2 0x251 JUMPI PUSH1 0x40 MLOAD PUSH3 0x461BCD PUSH1 0xE5 SHL DUP2 MSTORE PUSH1 0x20 PUSH1 0x4 DUP3 ADD MSTORE PUSH1 0x1F PUSH1 0x24 DUP3 ADD MSTORE PUSH32 0x5265656E7472616E637947756172643A207265656E7472616E742063616C6C00 PUSH1 0x44 DUP3 ADD MSTORE PUSH1 0x64 ADD JUMPDEST PUSH1 0x40 MLOAD DUP1 SWAP2 SUB SWAP1 REVERT JUMPDEST PUSH1 0x2 PUSH1 0x0 DUP2 DUP2 SSTORE CALLER DUP2 MSTORE PUSH1 0x20 SWAP2 SWAP1 SWAP2 MSTORE PUSH1 0x40 SWAP1 KECCAK256 SLOAD PUSH2 0x2B2 JUMPI PUSH1 0x40 MLOAD PUSH3 0x461BCD PUSH1 0xE5 SHL DUP2 MSTORE PUSH1 0x20 PUSH1 0x4 DUP3 ADD MSTORE PUSH1 0x19 PUSH1 0x24 DUP3 ADD MSTORE PUSH32 0x596F752068617665206E6F20746F6B656E73207374616B656400000000000000 PUSH1 0x44 DUP3 ADD MSTORE PUSH1 0x64 ADD PUSH2 0x248 JUMP JUMPDEST PUSH1 0x0 DUP2 DUP2 MSTORE PUSH1 0x3 PUSH1 0x20 MSTORE PUSH1 0x40 SWAP1 KECCAK256 SLOAD PUSH1 0x1 PUSH1 0x1 PUSH1 0xA0 SHL SUB AND CALLER EQ PUSH2 0x318 JUMPI PUSH1 0x40 MLOAD PUSH3 0x461BCD PUSH1 0xE5 SHL DUP2 MSTORE PUSH1 0x20 PUSH1 0x4 DUP3 ADD MSTORE PUSH1 0x19 PUSH1 0x24 DUP3 ADD MSTORE PUSH32 0x596F7520646F6E2774206F776E207468697320746F6B656E2100000000000000 PUSH1 0x44 DUP3 ADD MSTORE PUSH1 0x64 ADD PUSH2 0x248 JUMP JUMPDEST PUSH1 0x0 PUSH2 0x323 CALLER PUSH2 0xAB7 JUMP JUMPDEST CALLER PUSH1 0x0 SWAP1 DUP2 MSTORE PUSH1 0x2 PUSH1 0x20 MSTORE PUSH1 0x40 DUP2 KECCAK256 PUSH1 0x3 ADD DUP1 SLOAD SWAP3 SWAP4 POP DUP4 SWAP3 SWAP1 SWAP2 SWAP1 PUSH2 0x34A SWAP1 DUP5 SWAP1 PUSH2 0xEB2 JUMP JUMPDEST SWAP1 SWAP2 SSTORE POP PUSH1 0x0 SWAP1 POP DUP1 JUMPDEST CALLER PUSH1 0x0 SWAP1 DUP2 MSTORE PUSH1 0x2 PUSH1 0x20 MSTORE PUSH1 0x40 SWAP1 KECCAK256 PUSH1 0x1 ADD SLOAD DUP2 LT ISZERO PUSH2 0x3C6 JUMPI CALLER PUSH1 0x0 SWAP1 DUP2 MSTORE PUSH1 0x2 PUSH1 0x20 MSTORE PUSH1 0x40 SWAP1 KECCAK256 PUSH1 0x1 ADD DUP1 SLOAD DUP6 SWAP2 SWAP1 DUP4 SWAP1 DUP2 LT PUSH2 0x395 JUMPI PUSH2 0x395 PUSH2 0xECA JUMP JUMPDEST SWAP1 PUSH1 0x0 MSTORE PUSH1 0x20 PUSH1 0x0 KECCAK256 SWAP1 PUSH1 0x2 MUL ADD PUSH1 0x1 ADD SLOAD SUB PUSH2 0x3B4 JUMPI DUP1 SWAP2 POP PUSH2 0x3C6 JUMP JUMPDEST DUP1 PUSH2 0x3BE DUP2 PUSH2 0xEE0 JUMP JUMPDEST SWAP2 POP POP PUSH2 0x354 JUMP JUMPDEST POP CALLER PUSH1 0x0 SWAP1 DUP2 MSTORE PUSH1 0x2 PUSH1 0x20 MSTORE PUSH1 0x40 DUP2 KECCAK256 PUSH1 0x1 ADD DUP1 SLOAD DUP4 SWAP1 DUP2 LT PUSH2 0x3EB JUMPI PUSH2 0x3EB PUSH2 0xECA JUMP JUMPDEST PUSH1 0x0 SWAP2 DUP3 MSTORE PUSH1 0x20 DUP1 DUP4 KECCAK256 PUSH1 0x2 SWAP3 DUP4 MUL ADD DUP1 SLOAD PUSH1 0x1 PUSH1 0x1 PUSH1 0xA0 SHL SUB NOT AND PUSH1 0x1 PUSH1 0x1 PUSH1 0xA0 SHL SUB SWAP6 SWAP1 SWAP6 AND SWAP5 SWAP1 SWAP5 OR SWAP1 SWAP4 SSTORE CALLER DUP3 MSTORE SWAP1 SWAP2 MSTORE PUSH1 0x40 DUP2 KECCAK256 DUP1 SLOAD SWAP2 PUSH2 0x430 DUP4 PUSH2 0xEF9 JUMP JUMPDEST SWAP1 SWAP2 SSTORE POP POP PUSH1 0x0 DUP4 DUP2 MSTORE PUSH1 0x3 PUSH1 0x20 MSTORE PUSH1 0x40 SWAP1 DUP2 SWAP1 KECCAK256 DUP1 SLOAD PUSH1 0x1 PUSH1 0x1 PUSH1 0xA0 SHL SUB NOT AND SWAP1 SSTORE MLOAD PUSH4 0x23B872DD PUSH1 0xE0 SHL DUP2 MSTORE ADDRESS PUSH1 0x4 DUP3 ADD MSTORE CALLER PUSH1 0x24 DUP3 ADD MSTORE PUSH1 0x44 DUP2 ADD DUP5 SWAP1 MSTORE PUSH1 0x1 PUSH1 0x1 PUSH1 0xA0 SHL SUB PUSH32 0x0 AND SWAP1 PUSH4 0x23B872DD SWAP1 PUSH1 0x64 ADD PUSH1 0x0 PUSH1 0x40 MLOAD DUP1 DUP4 SUB DUP2 PUSH1 0x0 DUP8 DUP1 EXTCODESIZE ISZERO DUP1 ISZERO PUSH2 0x4BF JUMPI PUSH1 0x0 DUP1 REVERT JUMPDEST POP GAS CALL ISZERO DUP1 ISZERO PUSH2 0x4D3 JUMPI RETURNDATASIZE PUSH1 0x0 DUP1 RETURNDATACOPY RETURNDATASIZE PUSH1 0x0 REVERT JUMPDEST POP POP CALLER PUSH1 0x0 SWAP1 DUP2 MSTORE PUSH1 0x2 PUSH1 0x20 DUP2 SWAP1 MSTORE PUSH1 0x40 DUP3 KECCAK256 TIMESTAMP SWAP2 ADD SSTORE PUSH1 0x1 SWAP1 SSTORE POP POP POP POP POP JUMP JUMPDEST CALLER PUSH1 0x0 DUP2 DUP2 MSTORE PUSH1 0x2 PUSH1 0x20 MSTORE PUSH1 0x40 DUP2 KECCAK256 PUSH1 0x3 ADD SLOAD SWAP1 SWAP2 PUSH2 0x513 SWAP1 PUSH2 0xAB7 JUMP JUMPDEST PUSH2 0x51D SWAP2 SWAP1 PUSH2 0xEB2 JUMP JUMPDEST SWAP1 POP PUSH1 0x0 DUP2 GT PUSH2 0x56F JUMPI PUSH1 0x40 MLOAD PUSH3 0x461BCD PUSH1 0xE5 SHL DUP2 MSTORE PUSH1 0x20 PUSH1 0x4 DUP3 ADD MSTORE PUSH1 0x1C PUSH1 0x24 DUP3 ADD MSTORE PUSH32 0x596F752068617665206E6F207265776172647320746F20636C61696D00000000 PUSH1 0x44 DUP3 ADD MSTORE PUSH1 0x64 ADD PUSH2 0x248 JUMP JUMPDEST CALLER PUSH1 0x0 DUP2 DUP2 MSTORE PUSH1 0x2 PUSH1 0x20 DUP2 SWAP1 MSTORE PUSH1 0x40 DUP3 KECCAK256 TIMESTAMP SWAP2 DUP2 ADD SWAP2 SWAP1 SWAP2 SSTORE PUSH1 0x3 ADD SSTORE PUSH2 0x5C1 SWAP1 PUSH32 0x0 PUSH1 0x1 PUSH1 0x1 PUSH1 0xA0 SHL SUB AND SWAP1 DUP4 PUSH2 0xB10 JUMP JUMPDEST POP JUMP JUMPDEST PUSH1 0x1 PUSH1 0x1 PUSH1 0xA0 SHL SUB DUP2 AND PUSH1 0x0 SWAP1 DUP2 MSTORE PUSH1 0x2 PUSH1 0x20 MSTORE PUSH1 0x40 SWAP1 KECCAK256 SLOAD PUSH1 0x60 SWAP1 ISZERO PUSH2 0x77A JUMPI PUSH1 0x1 PUSH1 0x1 PUSH1 0xA0 SHL SUB DUP3 AND PUSH1 0x0 SWAP1 DUP2 MSTORE PUSH1 0x2 PUSH1 0x20 MSTORE PUSH1 0x40 DUP2 KECCAK256 SLOAD PUSH8 0xFFFFFFFFFFFFFFFF DUP2 GT ISZERO PUSH2 0x616 JUMPI PUSH2 0x616 PUSH2 0xF10 JUMP JUMPDEST PUSH1 0x40 MLOAD SWAP1 DUP1 DUP3 MSTORE DUP1 PUSH1 0x20 MUL PUSH1 0x20 ADD DUP3 ADD PUSH1 0x40 MSTORE DUP1 ISZERO PUSH2 0x65B JUMPI DUP2 PUSH1 0x20 ADD JUMPDEST PUSH1 0x40 DUP1 MLOAD DUP1 DUP3 ADD SWAP1 SWAP2 MSTORE PUSH1 0x0 DUP1 DUP3 MSTORE PUSH1 0x20 DUP3 ADD MSTORE DUP2 MSTORE PUSH1 0x20 ADD SWAP1 PUSH1 0x1 SWAP1 SUB SWAP1 DUP2 PUSH2 0x634 JUMPI SWAP1 POP JUMPDEST POP SWAP1 POP PUSH1 0x0 DUP1 JUMPDEST PUSH1 0x1 PUSH1 0x1 PUSH1 0xA0 SHL SUB DUP6 AND PUSH1 0x0 SWAP1 DUP2 MSTORE PUSH1 0x2 PUSH1 0x20 MSTORE PUSH1 0x40 SWAP1 KECCAK256 PUSH1 0x1 ADD SLOAD DUP2 LT ISZERO PUSH2 0x771 JUMPI PUSH1 0x1 PUSH1 0x1 PUSH1 0xA0 SHL SUB DUP6 AND PUSH1 0x0 SWAP1 DUP2 MSTORE PUSH1 0x2 PUSH1 0x20 MSTORE PUSH1 0x40 DUP2 KECCAK256 PUSH1 0x1 ADD DUP1 SLOAD DUP4 SWAP1 DUP2 LT PUSH2 0x6B2 JUMPI PUSH2 0x6B2 PUSH2 0xECA JUMP JUMPDEST PUSH1 0x0 SWAP2 DUP3 MSTORE PUSH1 0x20 SWAP1 SWAP2 KECCAK256 PUSH1 0x2 SWAP1 SWAP2 MUL ADD SLOAD PUSH1 0x1 PUSH1 0x1 PUSH1 0xA0 SHL SUB AND EQ PUSH2 0x75F JUMPI PUSH1 0x1 PUSH1 0x1 PUSH1 0xA0 SHL SUB DUP6 AND PUSH1 0x0 SWAP1 DUP2 MSTORE PUSH1 0x2 PUSH1 0x20 MSTORE PUSH1 0x40 SWAP1 KECCAK256 PUSH1 0x1 ADD DUP1 SLOAD DUP3 SWAP1 DUP2 LT PUSH2 0x6FE JUMPI PUSH2 0x6FE PUSH2 0xECA JUMP JUMPDEST PUSH1 0x0 SWAP2 DUP3 MSTORE PUSH1 0x20 SWAP2 DUP3 SWAP1 KECCAK256 PUSH1 0x40 DUP1 MLOAD DUP1 DUP3 ADD SWAP1 SWAP2 MSTORE PUSH1 0x2 SWAP1 SWAP3 MUL ADD DUP1 SLOAD PUSH1 0x1 PUSH1 0x1 PUSH1 0xA0 SHL SUB AND DUP3 MSTORE PUSH1 0x1 ADD SLOAD SWAP2 DUP2 ADD SWAP2 SWAP1 SWAP2 MSTORE DUP4 MLOAD DUP5 SWAP1 DUP5 SWAP1 DUP2 LT PUSH2 0x745 JUMPI PUSH2 0x745 PUSH2 0xECA JUMP JUMPDEST PUSH1 0x20 MUL PUSH1 0x20 ADD ADD DUP2 SWAP1 MSTORE POP DUP2 DUP1 PUSH2 0x75B SWAP1 PUSH2 0xEE0 JUMP JUMPDEST SWAP3 POP POP JUMPDEST DUP1 PUSH2 0x769 DUP2 PUSH2 0xEE0 JUMP JUMPDEST SWAP2 POP POP PUSH2 0x662 JUMP JUMPDEST POP SWAP1 SWAP4 SWAP3 POP POP POP JUMP JUMPDEST PUSH1 0x40 DUP1 MLOAD PUSH1 0x0 DUP1 DUP3 MSTORE PUSH1 0x20 DUP3 ADD SWAP1 SWAP3 MSTORE SWAP1 PUSH2 0x7B7 JUMP JUMPDEST PUSH1 0x40 DUP1 MLOAD DUP1 DUP3 ADD SWAP1 SWAP2 MSTORE PUSH1 0x0 DUP1 DUP3 MSTORE PUSH1 0x20 DUP3 ADD MSTORE DUP2 MSTORE PUSH1 0x20 ADD SWAP1 PUSH1 0x1 SWAP1 SUB SWAP1 DUP2 PUSH2 0x790 JUMPI SWAP1 POP JUMPDEST POP SWAP3 SWAP2 POP POP JUMP JUMPDEST PUSH1 0x2 PUSH1 0x0 SLOAD SUB PUSH2 0x810 JUMPI PUSH1 0x40 MLOAD PUSH3 0x461BCD PUSH1 0xE5 SHL DUP2 MSTORE PUSH1 0x20 PUSH1 0x4 DUP3 ADD MSTORE PUSH1 0x1F PUSH1 0x24 DUP3 ADD MSTORE PUSH32 0x5265656E7472616E637947756172643A207265656E7472616E742063616C6C00 PUSH1 0x44 DUP3 ADD MSTORE PUSH1 0x64 ADD PUSH2 0x248 JUMP JUMPDEST PUSH1 0x2 PUSH1 0x0 DUP2 DUP2 SSTORE CALLER DUP2 MSTORE PUSH1 0x20 SWAP2 SWAP1 SWAP2 MSTORE PUSH1 0x40 SWAP1 KECCAK256 SLOAD ISZERO PUSH2 0x863 JUMPI PUSH1 0x0 PUSH2 0x835 CALLER PUSH2 0xAB7 JUMP JUMPDEST CALLER PUSH1 0x0 SWAP1 DUP2 MSTORE PUSH1 0x2 PUSH1 0x20 MSTORE PUSH1 0x40 DUP2 KECCAK256 PUSH1 0x3 ADD DUP1 SLOAD SWAP3 SWAP4 POP DUP4 SWAP3 SWAP1 SWAP2 SWAP1 PUSH2 0x85C SWAP1 DUP5 SWAP1 PUSH2 0xEB2 JUMP JUMPDEST SWAP1 SWAP2 SSTORE POP POP POP JUMPDEST PUSH1 0x40 MLOAD PUSH4 0x31A9108F PUSH1 0xE1 SHL DUP2 MSTORE PUSH1 0x4 DUP2 ADD DUP3 SWAP1 MSTORE CALLER SWAP1 PUSH1 0x1 PUSH1 0x1 PUSH1 0xA0 SHL SUB PUSH32 0x0 AND SWAP1 PUSH4 0x6352211E SWAP1 PUSH1 0x24 ADD PUSH1 0x20 PUSH1 0x40 MLOAD DUP1 DUP4 SUB DUP2 DUP7 GAS STATICCALL ISZERO DUP1 ISZERO PUSH2 0x8CA JUMPI RETURNDATASIZE PUSH1 0x0 DUP1 RETURNDATACOPY RETURNDATASIZE PUSH1 0x0 REVERT JUMPDEST POP POP POP POP PUSH1 0x40 MLOAD RETURNDATASIZE PUSH1 0x1F NOT PUSH1 0x1F DUP3 ADD AND DUP3 ADD DUP1 PUSH1 0x40 MSTORE POP DUP2 ADD SWAP1 PUSH2 0x8EE SWAP2 SWAP1 PUSH2 0xF26 JUMP JUMPDEST PUSH1 0x1 PUSH1 0x1 PUSH1 0xA0 SHL SUB AND EQ PUSH2 0x944 JUMPI PUSH1 0x40 MLOAD PUSH3 0x461BCD PUSH1 0xE5 SHL DUP2 MSTORE PUSH1 0x20 PUSH1 0x4 DUP3 ADD MSTORE PUSH1 0x19 PUSH1 0x24 DUP3 ADD MSTORE PUSH32 0x596F7520646F6E2774206F776E207468697320746F6B656E2100000000000000 PUSH1 0x44 DUP3 ADD MSTORE PUSH1 0x64 ADD PUSH2 0x248 JUMP JUMPDEST PUSH1 0x40 MLOAD PUSH4 0x23B872DD PUSH1 0xE0 SHL DUP2 MSTORE CALLER PUSH1 0x4 DUP3 ADD MSTORE ADDRESS PUSH1 0x24 DUP3 ADD MSTORE PUSH1 0x44 DUP2 ADD DUP3 SWAP1 MSTORE PUSH32 0x0 PUSH1 0x1 PUSH1 0x1 PUSH1 0xA0 SHL SUB AND SWAP1 PUSH4 0x23B872DD SWAP1 PUSH1 0x64 ADD PUSH1 0x0 PUSH1 0x40 MLOAD DUP1 DUP4 SUB DUP2 PUSH1 0x0 DUP8 DUP1 EXTCODESIZE ISZERO DUP1 ISZERO PUSH2 0x9B2 JUMPI PUSH1 0x0 DUP1 REVERT JUMPDEST POP GAS CALL ISZERO DUP1 ISZERO PUSH2 0x9C6 JUMPI RETURNDATASIZE PUSH1 0x0 DUP1 RETURNDATACOPY RETURNDATASIZE PUSH1 0x0 REVERT JUMPDEST POP POP PUSH1 0x40 DUP1 MLOAD DUP1 DUP3 ADD DUP3 MSTORE CALLER DUP1 DUP3 MSTORE PUSH1 0x20 DUP1 DUP4 ADD DUP8 DUP2 MSTORE PUSH1 0x0 DUP4 DUP2 MSTORE PUSH1 0x2 DUP1 DUP5 MSTORE SWAP6 DUP2 KECCAK256 PUSH1 0x1 DUP1 DUP3 ADD DUP1 SLOAD DUP1 DUP4 ADD DUP3 SSTORE SWAP1 DUP5 MSTORE SWAP5 DUP4 KECCAK256 DUP8 MLOAD SWAP6 SWAP1 SWAP9 MUL SWAP1 SWAP8 ADD DUP1 SLOAD PUSH1 0x1 PUSH1 0x1 PUSH1 0xA0 SHL SUB NOT AND PUSH1 0x1 PUSH1 0x1 PUSH1 0xA0 SHL SUB SWAP1 SWAP6 AND SWAP5 SWAP1 SWAP5 OR DUP5 SSTORE SWAP2 MLOAD SWAP3 SWAP1 SWAP6 ADD SWAP2 SWAP1 SWAP2 SSTORE SWAP1 DUP4 MSTORE DUP1 SLOAD SWAP2 SWAP5 POP SWAP1 SWAP3 POP SWAP1 PUSH2 0xA41 DUP4 PUSH2 0xEE0 JUMP JUMPDEST SWAP1 SWAP2 SSTORE POP POP POP PUSH1 0x0 SWAP1 DUP2 MSTORE PUSH1 0x3 PUSH1 0x20 SWAP1 DUP2 MSTORE PUSH1 0x40 DUP1 DUP4 KECCAK256 DUP1 SLOAD PUSH1 0x1 PUSH1 0x1 PUSH1 0xA0 SHL SUB NOT AND CALLER SWAP1 DUP2 OR SWAP1 SWAP2 SSTORE DUP4 MSTORE PUSH1 0x2 SWAP2 DUP3 SWAP1 MSTORE DUP3 KECCAK256 TIMESTAMP SWAP2 ADD SSTORE PUSH1 0x1 SWAP1 SSTORE JUMP JUMPDEST PUSH1 0x1 PUSH1 0x1 PUSH1 0xA0 SHL SUB DUP2 AND PUSH1 0x0 SWAP1 DUP2 MSTORE PUSH1 0x2 PUSH1 0x20 MSTORE PUSH1 0x40 DUP2 KECCAK256 PUSH1 0x3 ADD SLOAD DUP2 SWAP1 PUSH2 0xAA6 DUP5 PUSH2 0xAB7 JUMP JUMPDEST PUSH2 0xAB0 SWAP2 SWAP1 PUSH2 0xEB2 JUMP JUMPDEST SWAP4 SWAP3 POP POP POP JUMP JUMPDEST PUSH1 0x1 SLOAD PUSH1 0x1 PUSH1 0x1 PUSH1 0xA0 SHL SUB DUP3 AND PUSH1 0x0 SWAP1 DUP2 MSTORE PUSH1 0x2 PUSH1 0x20 DUP2 SWAP1 MSTORE PUSH1 0x40 DUP3 KECCAK256 DUP1 SLOAD SWAP2 ADD SLOAD SWAP2 SWAP3 PUSH2 0xE10 SWAP3 SWAP1 SWAP2 SWAP1 PUSH2 0xAEC SWAP1 TIMESTAMP PUSH2 0xF43 JUMP JUMPDEST PUSH2 0xAF6 SWAP2 SWAP1 PUSH2 0xF5A JUMP JUMPDEST PUSH2 0xB00 SWAP2 SWAP1 PUSH2 0xF5A JUMP JUMPDEST PUSH2 0xB0A SWAP2 SWAP1 PUSH2 0xF79 JUMP JUMPDEST SWAP3 SWAP2 POP POP JUMP JUMPDEST PUSH1 0x40 DUP1 MLOAD PUSH1 0x1 PUSH1 0x1 PUSH1 0xA0 SHL SUB DUP5 AND PUSH1 0x24 DUP3 ADD MSTORE PUSH1 0x44 DUP1 DUP3 ADD DUP5 SWAP1 MSTORE DUP3 MLOAD DUP1 DUP4 SUB SWAP1 SWAP2 ADD DUP2 MSTORE PUSH1 0x64 SWAP1 SWAP2 ADD SWAP1 SWAP2 MSTORE PUSH1 0x20 DUP2 ADD DUP1 MLOAD PUSH28 0xFFFFFFFFFFFFFFFFFFFFFFFFFFFFFFFFFFFFFFFFFFFFFFFFFFFFFFFF AND PUSH4 0xA9059CBB PUSH1 0xE0 SHL OR SWAP1 MSTORE PUSH2 0xB77 SWAP1 DUP5 SWAP1 PUSH2 0xB7C JUMP JUMPDEST POP POP POP JUMP JUMPDEST PUSH1 0x0 PUSH2 0xBD1 DUP3 PUSH1 0x40 MLOAD DUP1 PUSH1 0x40 ADD PUSH1 0x40 MSTORE DUP1 PUSH1 0x20 DUP2 MSTORE PUSH1 0x20 ADD PUSH32 0x5361666545524332303A206C6F772D6C6576656C2063616C6C206661696C6564 DUP2 MSTORE POP DUP6 PUSH1 0x1 PUSH1 0x1 PUSH1 0xA0 SHL SUB AND PUSH2 0xC61 SWAP1 SWAP3 SWAP2 SWAP1 PUSH4 0xFFFFFFFF AND JUMP JUMPDEST DUP1 MLOAD SWAP1 SWAP2 POP ISZERO PUSH2 0xB77 JUMPI DUP1 DUP1 PUSH1 0x20 ADD SWAP1 MLOAD DUP2 ADD SWAP1 PUSH2 0xBEF SWAP2 SWAP1 PUSH2 0xF9B JUMP JUMPDEST PUSH2 0xB77 JUMPI PUSH1 0x40 MLOAD PUSH3 0x461BCD PUSH1 0xE5 SHL DUP2 MSTORE PUSH1 0x20 PUSH1 0x4 DUP3 ADD MSTORE PUSH1 0x2A PUSH1 0x24 DUP3 ADD MSTORE PUSH32 0x5361666545524332303A204552433230206F7065726174696F6E20646964206E PUSH1 0x44 DUP3 ADD MSTORE PUSH32 0x6F74207375636365656400000000000000000000000000000000000000000000 PUSH1 0x64 DUP3 ADD MSTORE PUSH1 0x84 ADD PUSH2 0x248 JUMP JUMPDEST PUSH1 0x60 PUSH2 0xC70 DUP5 DUP5 PUSH1 0x0 DUP6 PUSH2 0xC78 JUMP JUMPDEST SWAP5 SWAP4 POP POP POP POP JUMP JUMPDEST PUSH1 0x60 DUP3 SELFBALANCE LT ISZERO PUSH2 0xCF0 JUMPI PUSH1 0x40 MLOAD PUSH3 0x461BCD PUSH1 0xE5 SHL DUP2 MSTORE PUSH1 0x20 PUSH1 0x4 DUP3 ADD MSTORE PUSH1 0x26 PUSH1 0x24 DUP3 ADD MSTORE PUSH32 0x416464726573733A20696E73756666696369656E742062616C616E636520666F PUSH1 0x44 DUP3 ADD MSTORE PUSH32 0x722063616C6C0000000000000000000000000000000000000000000000000000 PUSH1 0x64 DUP3 ADD MSTORE PUSH1 0x84 ADD PUSH2 0x248 JUMP JUMPDEST PUSH1 0x1 PUSH1 0x1 PUSH1 0xA0 SHL SUB DUP6 AND EXTCODESIZE PUSH2 0xD47 JUMPI PUSH1 0x40 MLOAD PUSH3 0x461BCD PUSH1 0xE5 SHL DUP2 MSTORE PUSH1 0x20 PUSH1 0x4 DUP3 ADD MSTORE PUSH1 0x1D PUSH1 0x24 DUP3 ADD MSTORE PUSH32 0x416464726573733A2063616C6C20746F206E6F6E2D636F6E7472616374000000 PUSH1 0x44 DUP3 ADD MSTORE PUSH1 0x64 ADD PUSH2 0x248 JUMP JUMPDEST PUSH1 0x0 DUP1 DUP7 PUSH1 0x1 PUSH1 0x1 PUSH1 0xA0 SHL SUB AND DUP6 DUP8 PUSH1 0x40 MLOAD PUSH2 0xD63 SWAP2 SWAP1 PUSH2 0xFED JUMP JUMPDEST PUSH1 0x0 PUSH1 0x40 MLOAD DUP1 DUP4 SUB DUP2 DUP6 DUP8 GAS CALL SWAP3 POP POP POP RETURNDATASIZE DUP1 PUSH1 0x0 DUP2 EQ PUSH2 0xDA0 JUMPI PUSH1 0x40 MLOAD SWAP2 POP PUSH1 0x1F NOT PUSH1 0x3F RETURNDATASIZE ADD AND DUP3 ADD PUSH1 0x40 MSTORE RETURNDATASIZE DUP3 MSTORE RETURNDATASIZE PUSH1 0x0 PUSH1 0x20 DUP5 ADD RETURNDATACOPY PUSH2 0xDA5 JUMP JUMPDEST PUSH1 0x60 SWAP2 POP JUMPDEST POP SWAP2 POP SWAP2 POP PUSH2 0xDB5 DUP3 DUP3 DUP7 PUSH2 0xDC0 JUMP JUMPDEST SWAP8 SWAP7 POP POP POP POP POP POP POP JUMP JUMPDEST PUSH1 0x60 DUP4 ISZERO PUSH2 0xDCF JUMPI POP DUP2 PUSH2 0xAB0 JUMP JUMPDEST DUP3 MLOAD ISZERO PUSH2 0xDDF JUMPI DUP3 MLOAD DUP1 DUP5 PUSH1 0x20 ADD REVERT JUMPDEST DUP2 PUSH1 0x40 MLOAD PUSH3 0x461BCD PUSH1 0xE5 SHL DUP2 MSTORE PUSH1 0x4 ADD PUSH2 0x248 SWAP2 SWAP1 PUSH2 0x1009 JUMP JUMPDEST PUSH1 0x0 PUSH1 0x20 DUP3 DUP5 SUB SLT ISZERO PUSH2 0xE0B JUMPI PUSH1 0x0 DUP1 REVERT JUMPDEST POP CALLDATALOAD SWAP2 SWAP1 POP JUMP JUMPDEST PUSH1 0x1 PUSH1 0x1 PUSH1 0xA0 SHL SUB DUP2 AND DUP2 EQ PUSH2 0x5C1 JUMPI PUSH1 0x0 DUP1 REVERT JUMPDEST PUSH1 0x0 PUSH1 0x20 DUP3 DUP5 SUB SLT ISZERO PUSH2 0xE39 JUMPI PUSH1 0x0 DUP1 REVERT JUMPDEST DUP2 CALLDATALOAD PUSH2 0xAB0 DUP2 PUSH2 0xE12 JUMP JUMPDEST PUSH1 0x20 DUP1 DUP3 MSTORE DUP3 MLOAD DUP3 DUP3 ADD DUP2 SWAP1 MSTORE PUSH1 0x0 SWAP2 SWAP1 PUSH1 0x40 SWAP1 DUP2 DUP6 ADD SWAP1 DUP7 DUP5 ADD DUP6 JUMPDEST DUP3 DUP2 LT ISZERO PUSH2 0xE8F JUMPI DUP2 MLOAD DUP1 MLOAD PUSH1 0x1 PUSH1 0x1 PUSH1 0xA0 SHL SUB AND DUP6 MSTORE DUP7 ADD MLOAD DUP7 DUP6 ADD MSTORE SWAP3 DUP5 ADD SWAP3 SWAP1 DUP6 ADD SWAP1 PUSH1 0x1 ADD PUSH2 0xE61 JUMP JUMPDEST POP SWAP2 SWAP8 SWAP7 POP POP POP POP POP POP POP JUMP JUMPDEST PUSH4 0x4E487B71 PUSH1 0xE0 SHL PUSH1 0x0 MSTORE PUSH1 0x11 PUSH1 0x4 MSTORE PUSH1 0x24 PUSH1 0x0 REVERT JUMPDEST PUSH1 0x0 DUP3 NOT DUP3 GT ISZERO PUSH2 0xEC5 JUMPI PUSH2 0xEC5 PUSH2 0xE9C JUMP JUMPDEST POP ADD SWAP1 JUMP JUMPDEST PUSH4 0x4E487B71 PUSH1 0xE0 SHL PUSH1 0x0 MSTORE PUSH1 0x32 PUSH1 0x4 MSTORE PUSH1 0x24 PUSH1 0x0 REVERT JUMPDEST PUSH1 0x0 PUSH1 0x1 DUP3 ADD PUSH2 0xEF2 JUMPI PUSH2 0xEF2 PUSH2 0xE9C JUMP JUMPDEST POP PUSH1 0x1 ADD SWAP1 JUMP JUMPDEST PUSH1 0x0 DUP2 PUSH2 0xF08 JUMPI PUSH2 0xF08 PUSH2 0xE9C JUMP JUMPDEST POP PUSH1 0x0 NOT ADD SWAP1 JUMP JUMPDEST PUSH4 0x4E487B71 PUSH1 0xE0 SHL PUSH1 0x0 MSTORE PUSH1 0x41 PUSH1 0x4 MSTORE PUSH1 0x24 PUSH1 0x0 REVERT JUMPDEST PUSH1 0x0 PUSH1 0x20 DUP3 DUP5 SUB SLT ISZERO PUSH2 0xF38 JUMPI PUSH1 0x0 DUP1 REVERT JUMPDEST DUP2 MLOAD PUSH2 0xAB0 DUP2 PUSH2 0xE12 JUMP JUMPDEST PUSH1 0x0 DUP3 DUP3 LT ISZERO PUSH2 0xF55 JUMPI PUSH2 0xF55 PUSH2 0xE9C JUMP JUMPDEST POP SUB SWAP1 JUMP JUMPDEST PUSH1 0x0 DUP2 PUSH1 0x0 NOT DIV DUP4 GT DUP3 ISZERO ISZERO AND ISZERO PUSH2 0xF74 JUMPI PUSH2 0xF74 PUSH2 0xE9C JUMP JUMPDEST POP MUL SWAP1 JUMP JUMPDEST PUSH1 0x0 DUP3 PUSH2 0xF96 JUMPI PUSH4 0x4E487B71 PUSH1 0xE0 SHL PUSH1 0x0 MSTORE PUSH1 0x12 PUSH1 0x4 MSTORE PUSH1 0x24 PUSH1 0x0 REVERT JUMPDEST POP DIV SWAP1 JUMP JUMPDEST PUSH1 0x0 PUSH1 0x20 DUP3 DUP5 SUB SLT ISZERO PUSH2 0xFAD JUMPI PUSH1 0x0 DUP1 REVERT JUMPDEST DUP2 MLOAD DUP1 ISZERO ISZERO DUP2 EQ PUSH2 0xAB0 JUMPI PUSH1 0x0 DUP1 REVERT JUMPDEST PUSH1 0x0 JUMPDEST DUP4 DUP2 LT ISZERO PUSH2 0xFD8 JUMPI DUP2 DUP2 ADD MLOAD DUP4 DUP3 ADD MSTORE PUSH1 0x20 ADD PUSH2 0xFC0 JUMP JUMPDEST DUP4 DUP2 GT ISZERO PUSH2 0xFE7 JUMPI PUSH1 0x0 DUP5 DUP5 ADD MSTORE JUMPDEST POP POP POP POP JUMP JUMPDEST PUSH1 0x0 DUP3 MLOAD PUSH2 0xFFF DUP2 DUP5 PUSH1 0x20 DUP8 ADD PUSH2 0xFBD JUMP JUMPDEST SWAP2 SWAP1 SWAP2 ADD SWAP3 SWAP2 POP POP JUMP JUMPDEST PUSH1 0x20 DUP2 MSTORE PUSH1 0x0 DUP3 MLOAD DUP1 PUSH1 0x20 DUP5 ADD MSTORE PUSH2 0x1028 DUP2 PUSH1 0x40 DUP6 ADD PUSH1 0x20 DUP8 ADD PUSH2 0xFBD JUMP JUMPDEST PUSH1 0x1F ADD PUSH1 0x1F NOT AND SWAP2 SWAP1 SWAP2 ADD PUSH1 0x40 ADD SWAP3 SWAP2 POP POP JUMP INVALID LOG2 PUSH5 0x6970667358 0x22 SLT KECCAK256 PUSH22 0x37D5AED3BA184B2AB67B8106C488140B12A72128AE2 DUP4 CALLDATACOPY PUSH3 0x927553 SWAP16 PUSH3 0xF26473 PUSH16 0x6C634300080D00330000000000000000 "
    },
    "gasEstimates": {
      "creation": {
        "codeDepositCost": "842000",
        "executionCost": "infinite",
        "totalCost": "infinite"
      },
      "external": {
        "availableRewards(address)": "infinite",
        "claimRewards()": "infinite",
        "getStakedTokens(address)": "infinite",
        "nftCollection()": "infinite",
        "rewardsToken()": "infinite",
        "stake(uint256)": "infinite",
        "stakerAddress(uint256)": "2522",
        "stakers(address)": "6811",
        "withdraw(uint256)": "infinite"
      },
      "internal": {
        "calculateRewards(address)": "infinite"
      }
    },
    "methodIdentifiers": {
      "availableRewards(address)": "f854a27f",
      "claimRewards()": "372500ab",
      "getStakedTokens(address)": "63c28db1",
      "nftCollection()": "6588103b",
      "rewardsToken()": "d1af0c7d",
      "stake(uint256)": "a694fc3a",
      "stakerAddress(uint256)": "94067045",
      "stakers(address)": "9168ae72",
      "withdraw(uint256)": "2e1a7d4d"
    }
  },
  "storageLayout": {
    "storage": [
      {
        "astId": 496,
        "contract": "NftStaking.sol:ERC721Staking",
        "label": "_status",
        "offset": 0,
        "slot": "0",
        "type": "t_uint256"
      },
      {
        "astId": 54,
        "contract": "NftStaking.sol:ERC721Staking",
        "label": "rewardsPerHour",
        "offset": 0,
        "slot": "1",
        "type": "t_uint256"
      },
      {
        "astId": 59,
        "contract": "NftStaking.sol:ERC721Staking",
        "label": "stakers",
        "offset": 0,
        "slot": "2",
        "type": "t_mapping(t_address,t_struct(Staker)51_storage)"
      },
      {
        "astId": 63,
        "contract": "NftStaking.sol:ERC721Staking",
        "label": "stakerAddress",
        "offset": 0,
        "slot": "3",
        "type": "t_mapping(t_uint256,t_address)"
      }
    ],
    "types": {
      "t_address": {
        "encoding": "inplace",
        "label": "address",
        "numberOfBytes": "20"
      },
      "t_array(t_struct(StakedToken)40_storage)dyn_storage": {
        "base": "t_struct(StakedToken)40_storage",
        "encoding": "dynamic_array",
        "label": "struct ERC721Staking.StakedToken[]",
        "numberOfBytes": "32"
      },
      "t_mapping(t_address,t_struct(Staker)51_storage)": {
        "encoding": "mapping",
        "key": "t_address",
        "label": "mapping(address => struct ERC721Staking.Staker)",
        "numberOfBytes": "32",
        "value": "t_struct(Staker)51_storage"
      },
      "t_mapping(t_uint256,t_address)": {
        "encoding": "mapping",
        "key": "t_uint256",
        "label": "mapping(uint256 => address)",
        "numberOfBytes": "32",
        "value": "t_address"
      },
      "t_struct(StakedToken)40_storage": {
        "encoding": "inplace",
        "label": "struct ERC721Staking.StakedToken",
        "members": [
          {
            "astId": 37,
            "contract": "NftStaking.sol:ERC721Staking",
            "label": "staker",
            "offset": 0,
            "slot": "0",
            "type": "t_address"
          },
          {
            "astId": 39,
            "contract": "NftStaking.sol:ERC721Staking",
            "label": "tokenId",
            "offset": 0,
            "slot": "1",
            "type": "t_uint256"
          }
        ],
        "numberOfBytes": "64"
      },
      "t_struct(Staker)51_storage": {
        "encoding": "inplace",
        "label": "struct ERC721Staking.Staker",
        "members": [
          {
            "astId": 42,
            "contract": "NftStaking.sol:ERC721Staking",
            "label": "amountStaked",
            "offset": 0,
            "slot": "0",
            "type": "t_uint256"
          },
          {
            "astId": 46,
            "contract": "NftStaking.sol:ERC721Staking",
            "label": "stakedTokens",
            "offset": 0,
            "slot": "1",
            "type": "t_array(t_struct(StakedToken)40_storage)dyn_storage"
          },
          {
            "astId": 48,
            "contract": "NftStaking.sol:ERC721Staking",
            "label": "timeOfLastUpdate",
            "offset": 0,
            "slot": "2",
            "type": "t_uint256"
          },
          {
            "astId": 50,
            "contract": "NftStaking.sol:ERC721Staking",
            "label": "unclaimedRewards",
            "offset": 0,
            "slot": "3",
            "type": "t_uint256"
          }
        ],
        "numberOfBytes": "128"
      },
      "t_uint256": {
        "encoding": "inplace",
        "label": "uint256",
        "numberOfBytes": "32"
      }
    }
  },
  "userdoc": {
    "kind": "user",
    "methods": {},
    "version": 1
  }
}